{
  "_format": "hh-sol-artifact-1",
  "contractName": "Traceability",
  "sourceName": "contracts/Traceability.sol",
  "abi": [
    {
      "inputs": [
        {
          "internalType": "address",
          "name": "_farmerGovtContract",
          "type": "address"
        },
        {
          "internalType": "address",
          "name": "_govtCustomerContract",
          "type": "address"
        }
      ],
      "stateMutability": "nonpayable",
      "type": "constructor"
    },
    {
      "anonymous": false,
      "inputs": [
        {
          "indexed": true,
          "internalType": "address",
          "name": "cropId",
          "type": "address"
        },
        {
          "indexed": false,
          "internalType": "string",
          "name": "qrCodeId",
          "type": "string"
        },
        {
          "indexed": false,
          "internalType": "string",
          "name": "qrCodeData",
          "type": "string"
        },
        {
          "indexed": false,
          "internalType": "uint256",
          "name": "timestamp",
          "type": "uint256"
        }
      ],
      "name": "QRCodeGenerated",
      "type": "event"
    },
    {
      "anonymous": false,
      "inputs": [
        {
          "indexed": true,
          "internalType": "address",
          "name": "cropId",
          "type": "address"
        },
        {
          "indexed": true,
          "internalType": "address",
          "name": "farmerId",
          "type": "address"
        },
        {
          "indexed": false,
          "internalType": "string",
          "name": "cropCode",
          "type": "string"
        },
        {
          "indexed": false,
          "internalType": "string",
          "name": "ipfsHash",
          "type": "string"
        },
        {
          "indexed": false,
          "internalType": "string",
          "name": "dataHash",
          "type": "string"
        },
        {
          "indexed": false,
          "internalType": "uint256",
          "name": "timestamp",
          "type": "uint256"
        }
      ],
      "name": "TraceabilityDataRecorded",
      "type": "event"
    },
    {
      "anonymous": false,
      "inputs": [
        {
          "indexed": true,
          "internalType": "address",
          "name": "cropId",
          "type": "address"
        },
        {
          "indexed": false,
          "internalType": "string",
          "name": "newIpfsHash",
          "type": "string"
        },
        {
          "indexed": false,
          "internalType": "string",
          "name": "newDataHash",
          "type": "string"
        },
        {
          "indexed": false,
          "internalType": "uint256",
          "name": "timestamp",
          "type": "uint256"
        }
      ],
      "name": "TraceabilityDataUpdated",
      "type": "event"
    },
    {
      "anonymous": false,
      "inputs": [
        {
          "indexed": true,
          "internalType": "address",
          "name": "cropId",
          "type": "address"
        },
        {
          "indexed": true,
          "internalType": "address",
          "name": "verifierId",
          "type": "address"
        },
        {
          "indexed": false,
          "internalType": "string",
          "name": "verificationHash",
          "type": "string"
        },
        {
          "indexed": false,
          "internalType": "uint256",
          "name": "timestamp",
          "type": "uint256"
        }
      ],
      "name": "VerificationRecorded",
      "type": "event"
    },
    {
      "inputs": [
        {
          "internalType": "address",
          "name": "_cropId",
          "type": "address"
        },
        {
          "internalType": "string",
          "name": "_stepType",
          "type": "string"
        },
        {
          "internalType": "string",
          "name": "_description",
          "type": "string"
        },
        {
          "internalType": "address",
          "name": "_actorId",
          "type": "address"
        },
        {
          "internalType": "string",
          "name": "_actorType",
          "type": "string"
        },
        {
          "internalType": "string",
          "name": "_metadata",
          "type": "string"
        }
      ],
      "name": "addJourneyStep",
      "outputs": [],
      "stateMutability": "nonpayable",
      "type": "function"
    },
    {
      "inputs": [
        {
          "internalType": "address",
          "name": "",
          "type": "address"
        },
        {
          "internalType": "uint256",
          "name": "",
          "type": "uint256"
        }
      ],
      "name": "cropJourney",
      "outputs": [
        {
          "internalType": "string",
          "name": "stepType",
          "type": "string"
        },
        {
          "internalType": "string",
          "name": "description",
          "type": "string"
        },
        {
          "internalType": "address",
          "name": "actorId",
          "type": "address"
        },
        {
          "internalType": "string",
          "name": "actorType",
          "type": "string"
        },
        {
          "internalType": "uint256",
          "name": "timestamp",
          "type": "uint256"
        },
        {
          "internalType": "string",
          "name": "metadata",
          "type": "string"
        }
      ],
      "stateMutability": "view",
      "type": "function"
    },
    {
      "inputs": [
        {
          "internalType": "address",
          "name": "_cropId",
          "type": "address"
        }
      ],
      "name": "deactivateRecord",
      "outputs": [],
      "stateMutability": "nonpayable",
      "type": "function"
    },
    {
      "inputs": [
        {
          "internalType": "address",
          "name": "",
          "type": "address"
        }
      ],
      "name": "farmerCropCount",
      "outputs": [
        {
          "internalType": "uint256",
          "name": "",
          "type": "uint256"
        }
      ],
      "stateMutability": "view",
      "type": "function"
    },
    {
      "inputs": [],
      "name": "farmerGovtContract",
      "outputs": [
        {
          "internalType": "address",
          "name": "",
          "type": "address"
        }
      ],
      "stateMutability": "view",
      "type": "function"
    },
    {
      "inputs": [
        {
          "internalType": "address",
          "name": "_cropId",
          "type": "address"
        },
        {
          "internalType": "string",
          "name": "_qrCodeId",
          "type": "string"
        },
        {
          "internalType": "string",
          "name": "_qrCodeData",
          "type": "string"
        }
      ],
      "name": "generateQRCode",
      "outputs": [],
      "stateMutability": "nonpayable",
      "type": "function"
    },
    {
      "inputs": [
        {
          "internalType": "address",
          "name": "_cropId",
          "type": "address"
        }
      ],
      "name": "getCompleteTraceabilityData",
      "outputs": [
        {
          "components": [
            {
              "internalType": "address",
              "name": "cropId",
              "type": "address"
            },
            {
              "internalType": "address",
              "name": "farmerId",
              "type": "address"
            },
            {
              "internalType": "string",
              "name": "cropCode",
              "type": "string"
            },
            {
              "internalType": "string",
              "name": "ipfsHash",
              "type": "string"
            },
            {
              "internalType": "string",
              "name": "dataHash",
              "type": "string"
            },
            {
              "internalType": "uint256",
              "name": "timestamp",
              "type": "uint256"
            },
            {
              "internalType": "bool",
              "name": "isActive",
              "type": "bool"
            },
            {
              "internalType": "string",
              "name": "qrCodeId",
              "type": "string"
            },
            {
              "internalType": "string",
              "name": "qrCodeData",
              "type": "string"
            }
          ],
          "internalType": "struct Traceability.TraceabilityRecord",
          "name": "",
          "type": "tuple"
        },
        {
          "components": [
            {
              "internalType": "address",
              "name": "cropId",
              "type": "address"
            },
            {
              "internalType": "address",
              "name": "verifierId",
              "type": "address"
            },
            {
              "internalType": "string",
              "name": "verificationHash",
              "type": "string"
            },
            {
              "internalType": "string",
              "name": "qualityGrade",
              "type": "string"
            },
            {
              "internalType": "uint256",
              "name": "qualityScore",
              "type": "uint256"
            },
            {
              "internalType": "uint256",
              "name": "timestamp",
              "type": "uint256"
            },
            {
              "internalType": "bool",
              "name": "isVerified",
              "type": "bool"
            }
          ],
          "internalType": "struct Traceability.VerificationRecord",
          "name": "",
          "type": "tuple"
        },
        {
          "components": [
            {
              "internalType": "string",
              "name": "stepType",
              "type": "string"
            },
            {
              "internalType": "string",
              "name": "description",
              "type": "string"
            },
            {
              "internalType": "address",
              "name": "actorId",
              "type": "address"
            },
            {
              "internalType": "string",
              "name": "actorType",
              "type": "string"
            },
            {
              "internalType": "uint256",
              "name": "timestamp",
              "type": "uint256"
            },
            {
              "internalType": "string",
              "name": "metadata",
              "type": "string"
            }
          ],
          "internalType": "struct Traceability.JourneyStep[]",
          "name": "",
          "type": "tuple[]"
        }
      ],
      "stateMutability": "view",
      "type": "function"
    },
    {
      "inputs": [],
      "name": "getContractStats",
      "outputs": [
        {
          "internalType": "uint256",
          "name": "",
          "type": "uint256"
        },
        {
          "internalType": "uint256",
          "name": "",
          "type": "uint256"
        }
      ],
      "stateMutability": "view",
      "type": "function"
    },
    {
      "inputs": [
        {
          "internalType": "string",
          "name": "_qrCodeId",
          "type": "string"
        }
      ],
      "name": "getCropByQRCode",
      "outputs": [
        {
          "internalType": "address",
          "name": "",
          "type": "address"
        }
      ],
      "stateMutability": "view",
      "type": "function"
    },
    {
      "inputs": [
        {
          "internalType": "address",
          "name": "_cropId",
          "type": "address"
        }
      ],
      "name": "getCropJourney",
      "outputs": [
        {
          "components": [
            {
              "internalType": "string",
              "name": "stepType",
              "type": "string"
            },
            {
              "internalType": "string",
              "name": "description",
              "type": "string"
            },
            {
              "internalType": "address",
              "name": "actorId",
              "type": "address"
            },
            {
              "internalType": "string",
              "name": "actorType",
              "type": "string"
            },
            {
              "internalType": "uint256",
              "name": "timestamp",
              "type": "uint256"
            },
            {
              "internalType": "string",
              "name": "metadata",
              "type": "string"
            }
          ],
          "internalType": "struct Traceability.JourneyStep[]",
          "name": "",
          "type": "tuple[]"
        }
      ],
      "stateMutability": "view",
      "type": "function"
    },
    {
      "inputs": [
        {
          "internalType": "address",
          "name": "_farmerId",
          "type": "address"
        }
      ],
      "name": "getFarmerCropCount",
      "outputs": [
        {
          "internalType": "uint256",
          "name": "",
          "type": "uint256"
        }
      ],
      "stateMutability": "view",
      "type": "function"
    },
    {
      "inputs": [
        {
          "internalType": "address",
          "name": "_cropId",
          "type": "address"
        }
      ],
      "name": "getTraceabilityRecord",
      "outputs": [
        {
          "components": [
            {
              "internalType": "address",
              "name": "cropId",
              "type": "address"
            },
            {
              "internalType": "address",
              "name": "farmerId",
              "type": "address"
            },
            {
              "internalType": "string",
              "name": "cropCode",
              "type": "string"
            },
            {
              "internalType": "string",
              "name": "ipfsHash",
              "type": "string"
            },
            {
              "internalType": "string",
              "name": "dataHash",
              "type": "string"
            },
            {
              "internalType": "uint256",
              "name": "timestamp",
              "type": "uint256"
            },
            {
              "internalType": "bool",
              "name": "isActive",
              "type": "bool"
            },
            {
              "internalType": "string",
              "name": "qrCodeId",
              "type": "string"
            },
            {
              "internalType": "string",
              "name": "qrCodeData",
              "type": "string"
            }
          ],
          "internalType": "struct Traceability.TraceabilityRecord",
          "name": "",
          "type": "tuple"
        }
      ],
      "stateMutability": "view",
      "type": "function"
    },
    {
      "inputs": [
        {
          "internalType": "address",
          "name": "_cropId",
          "type": "address"
        }
      ],
      "name": "getVerificationRecord",
      "outputs": [
        {
          "components": [
            {
              "internalType": "address",
              "name": "cropId",
              "type": "address"
            },
            {
              "internalType": "address",
              "name": "verifierId",
              "type": "address"
            },
            {
              "internalType": "string",
              "name": "verificationHash",
              "type": "string"
            },
            {
              "internalType": "string",
              "name": "qualityGrade",
              "type": "string"
            },
            {
              "internalType": "uint256",
              "name": "qualityScore",
              "type": "uint256"
            },
            {
              "internalType": "uint256",
              "name": "timestamp",
              "type": "uint256"
            },
            {
              "internalType": "bool",
              "name": "isVerified",
              "type": "bool"
            }
          ],
          "internalType": "struct Traceability.VerificationRecord",
          "name": "",
          "type": "tuple"
        }
      ],
      "stateMutability": "view",
      "type": "function"
    },
    {
      "inputs": [],
      "name": "govtCustomerContract",
      "outputs": [
        {
          "internalType": "address",
          "name": "",
          "type": "address"
        }
      ],
      "stateMutability": "view",
      "type": "function"
    },
    {
      "inputs": [],
      "name": "owner",
      "outputs": [
        {
          "internalType": "address",
          "name": "",
          "type": "address"
        }
      ],
      "stateMutability": "view",
      "type": "function"
    },
    {
      "inputs": [
        {
          "internalType": "string",
          "name": "",
          "type": "string"
        }
      ],
      "name": "qrCodeToCrop",
      "outputs": [
        {
          "internalType": "address",
          "name": "",
          "type": "address"
        }
      ],
      "stateMutability": "view",
      "type": "function"
    },
    {
      "inputs": [
        {
          "internalType": "address",
          "name": "_cropId",
          "type": "address"
        },
        {
          "internalType": "address",
          "name": "_farmerId",
          "type": "address"
        },
        {
          "internalType": "string",
          "name": "_cropCode",
          "type": "string"
        },
        {
          "internalType": "string",
          "name": "_ipfsHash",
          "type": "string"
        },
        {
          "internalType": "string",
          "name": "_dataHash",
          "type": "string"
        }
      ],
      "name": "recordTraceabilityData",
      "outputs": [],
      "stateMutability": "nonpayable",
      "type": "function"
    },
    {
      "inputs": [
        {
          "internalType": "address",
          "name": "_cropId",
          "type": "address"
        },
        {
          "internalType": "address",
          "name": "_verifierId",
          "type": "address"
        },
        {
          "internalType": "string",
          "name": "_verificationHash",
          "type": "string"
        },
        {
          "internalType": "string",
          "name": "_qualityGrade",
          "type": "string"
        },
        {
          "internalType": "uint256",
          "name": "_qualityScore",
          "type": "uint256"
        }
      ],
      "name": "recordVerification",
      "outputs": [],
      "stateMutability": "nonpayable",
      "type": "function"
    },
    {
      "inputs": [],
      "name": "totalRecords",
      "outputs": [
        {
          "internalType": "uint256",
          "name": "",
          "type": "uint256"
        }
      ],
      "stateMutability": "view",
      "type": "function"
    },
    {
      "inputs": [],
      "name": "totalVerifications",
      "outputs": [
        {
          "internalType": "uint256",
          "name": "",
          "type": "uint256"
        }
      ],
      "stateMutability": "view",
      "type": "function"
    },
    {
      "inputs": [
        {
          "internalType": "address",
          "name": "",
          "type": "address"
        }
      ],
      "name": "traceabilityRecords",
      "outputs": [
        {
          "internalType": "address",
          "name": "cropId",
          "type": "address"
        },
        {
          "internalType": "address",
          "name": "farmerId",
          "type": "address"
        },
        {
          "internalType": "string",
          "name": "cropCode",
          "type": "string"
        },
        {
          "internalType": "string",
          "name": "ipfsHash",
          "type": "string"
        },
        {
          "internalType": "string",
          "name": "dataHash",
          "type": "string"
        },
        {
          "internalType": "uint256",
          "name": "timestamp",
          "type": "uint256"
        },
        {
          "internalType": "bool",
          "name": "isActive",
          "type": "bool"
        },
        {
          "internalType": "string",
          "name": "qrCodeId",
          "type": "string"
        },
        {
          "internalType": "string",
          "name": "qrCodeData",
          "type": "string"
        }
      ],
      "stateMutability": "view",
      "type": "function"
    },
    {
      "inputs": [
        {
          "internalType": "address",
          "name": "_newOwner",
          "type": "address"
        }
      ],
      "name": "transferOwnership",
      "outputs": [],
      "stateMutability": "nonpayable",
      "type": "function"
    },
    {
      "inputs": [
        {
          "internalType": "address",
          "name": "_farmerGovtContract",
          "type": "address"
        },
        {
          "internalType": "address",
          "name": "_govtCustomerContract",
          "type": "address"
        }
      ],
      "name": "updateAuthorizedContracts",
      "outputs": [],
      "stateMutability": "nonpayable",
      "type": "function"
    },
    {
      "inputs": [
        {
          "internalType": "address",
          "name": "_cropId",
          "type": "address"
        },
        {
          "internalType": "string",
          "name": "_newIpfsHash",
          "type": "string"
        },
        {
          "internalType": "string",
          "name": "_newDataHash",
          "type": "string"
        }
      ],
      "name": "updateTraceabilityData",
      "outputs": [],
      "stateMutability": "nonpayable",
      "type": "function"
    },
    {
      "inputs": [
        {
          "internalType": "address",
          "name": "",
          "type": "address"
        }
      ],
      "name": "verificationRecords",
      "outputs": [
        {
          "internalType": "address",
          "name": "cropId",
          "type": "address"
        },
        {
          "internalType": "address",
          "name": "verifierId",
          "type": "address"
        },
        {
          "internalType": "string",
          "name": "verificationHash",
          "type": "string"
        },
        {
          "internalType": "string",
          "name": "qualityGrade",
          "type": "string"
        },
        {
          "internalType": "uint256",
          "name": "qualityScore",
          "type": "uint256"
        },
        {
          "internalType": "uint256",
          "name": "timestamp",
          "type": "uint256"
        },
        {
          "internalType": "bool",
          "name": "isVerified",
          "type": "bool"
        }
      ],
      "stateMutability": "view",
      "type": "function"
    }
  ],
  "bytecode": "0x60806040523480156200001157600080fd5b50604051620038583803806200385883398101604081905262000034916200008e565b600580546001600160a01b03199081163317909155600680546001600160a01b0394851690831617905560078054929093169116179055620000c6565b80516001600160a01b03811681146200008957600080fd5b919050565b60008060408385031215620000a257600080fd5b620000ad8362000071565b9150620000bd6020840162000071565b90509250929050565b61378280620000d66000396000f3fe608060405234801561001057600080fd5b50600436106101735760003560e01c80638824036a116100de578063d5dc752b11610097578063dfe6b5d611610071578063dfe6b5d6146103cb578063e63ec687146103e6578063f2fde38b14610406578063f5ddfeaf1461041957600080fd5b8063d5dc752b14610361578063dadae85814610381578063dcf48529146103a357600080fd5b80638824036a146102d85780638da5cb5b146102eb5780639f10ce05146102fe578063ac90c14014610311578063b64e81231461031a578063c91329af1461034e57600080fd5b806347d3831e1161013057806347d3831e1461024457806354a614f9146102595780635e6672b81461027957806360348b3b1461028c57806369845006146102b25780636e5f70e9146102c557600080fd5b8063041645a514610178578063125f8974146101a157806314310ffb146101b857806318f314d0146101e35780632c4066fe1461020857806346569fd71461021b575b600080fd5b61018b610186366004612c3f565b61042c565b6040516101989190612d86565b60405180910390f35b6101aa60085481565b604051908152602001610198565b6006546101cb906001600160a01b031681565b6040516001600160a01b039091168152602001610198565b6101f66101f1366004612d99565b6107af565b60405161019896959493929190612dc3565b6007546101cb906001600160a01b031681565b6101aa610229366004612c3f565b6001600160a01b031660009081526004602052604090205490565b610257610252366004612ed5565b610a37565b005b61026c610267366004612c3f565b610caf565b604051610198919061301a565b61025761028736600461302d565b610fc2565b61029f61029a366004612c3f565b611365565b60405161019897969594939291906130d7565b6102576102c0366004613137565b6114c4565b6101cb6102d3366004613204565b611728565b6102576102e6366004613241565b6117cd565b6005546101cb906001600160a01b031681565b61025761030c366004612ed5565b6118ec565b6101aa60095481565b6101cb610328366004613204565b80516020818301810180516003825292820191909301209152546001600160a01b031681565b61025761035c366004613274565b611a9a565b6101aa61036f366004612c3f565b60046020526000908152604090205481565b61039461038f366004612c3f565b611d69565b6040516101989392919061337c565b6103b66103b1366004612c3f565b61254f565b604051610198999897969594939291906133b5565b60085460095460408051928352602083019190915201610198565b6103f96103f4366004612c3f565b612853565b6040516101989190613451565b610257610414366004612c3f565b612a4b565b610257610427366004612c3f565b612aed565b610434612b72565b6001600160a01b03828116600090815260208190526040902054166104745760405162461bcd60e51b815260040161046b90613464565b60405180910390fd5b6001600160a01b038083166000908152602081815260409182902082516101208101845281548516815260018201549094169184019190915260028101805491928401916104c19061348c565b80601f01602080910402602001604051908101604052809291908181526020018280546104ed9061348c565b801561053a5780601f1061050f5761010080835404028352916020019161053a565b820191906000526020600020905b81548152906001019060200180831161051d57829003601f168201915b505050505081526020016003820180546105539061348c565b80601f016020809104026020016040519081016040528092919081815260200182805461057f9061348c565b80156105cc5780601f106105a1576101008083540402835291602001916105cc565b820191906000526020600020905b8154815290600101906020018083116105af57829003601f168201915b505050505081526020016004820180546105e59061348c565b80601f01602080910402602001604051908101604052809291908181526020018280546106119061348c565b801561065e5780601f106106335761010080835404028352916020019161065e565b820191906000526020600020905b81548152906001019060200180831161064157829003601f168201915b505050918352505060058201546020820152600682015460ff16151560408201526007820180546060909201916106949061348c565b80601f01602080910402602001604051908101604052809291908181526020018280546106c09061348c565b801561070d5780601f106106e25761010080835404028352916020019161070d565b820191906000526020600020905b8154815290600101906020018083116106f057829003601f168201915b505050505081526020016008820180546107269061348c565b80601f01602080910402602001604051908101604052809291908181526020018280546107529061348c565b801561079f5780601f106107745761010080835404028352916020019161079f565b820191906000526020600020905b81548152906001019060200180831161078257829003601f168201915b5050505050815250509050919050565b600260205281600052604060002081815481106107cb57600080fd5b9060005260206000209060060201600091509150508060000180546107ef9061348c565b80601f016020809104026020016040519081016040528092919081815260200182805461081b9061348c565b80156108685780601f1061083d57610100808354040283529160200191610868565b820191906000526020600020905b81548152906001019060200180831161084b57829003601f168201915b50505050509080600101805461087d9061348c565b80601f01602080910402602001604051908101604052809291908181526020018280546108a99061348c565b80156108f65780601f106108cb576101008083540402835291602001916108f6565b820191906000526020600020905b8154815290600101906020018083116108d957829003601f168201915b505050600284015460038501805494956001600160a01b039092169491935091506109209061348c565b80601f016020809104026020016040519081016040528092919081815260200182805461094c9061348c565b80156109995780601f1061096e57610100808354040283529160200191610999565b820191906000526020600020905b81548152906001019060200180831161097c57829003601f168201915b5050505050908060040154908060050180546109b49061348c565b80601f01602080910402602001604051908101604052809291908181526020018280546109e09061348c565b8015610a2d5780601f10610a0257610100808354040283529160200191610a2d565b820191906000526020600020905b815481529060010190602001808311610a1057829003601f168201915b5050505050905086565b6006546001600160a01b0316331480610a5a57506007546001600160a01b031633145b80610a6f57506005546001600160a01b031633145b610a8b5760405162461bcd60e51b815260040161046b906134c6565b6001600160a01b0383811660009081526020819052604090205416610ac25760405162461bcd60e51b815260040161046b90613464565b6000825111610b135760405162461bcd60e51b815260206004820152601a60248201527f515220636f64652049442063616e6e6f7420626520656d707479000000000000604482015260640161046b565b6000815111610b645760405162461bcd60e51b815260206004820152601c60248201527f515220636f646520646174612063616e6e6f7420626520656d70747900000000604482015260640161046b565b60006001600160a01b0316600383604051610b7f9190613516565b908152604051908190036020019020546001600160a01b031614610be55760405162461bcd60e51b815260206004820152601960248201527f515220636f646520494420616c72656164792065786973747300000000000000604482015260640161046b565b6001600160a01b0383166000908152602081905260409020600701610c0a8382613581565b506001600160a01b0383166000908152602081905260409020600801610c308282613581565b5082600383604051610c429190613516565b90815260405190819003602001812080546001600160a01b039384166001600160a01b0319909116179055908416907f11e1873075085b5ead93bb53a59fc69ab8359eae4726303faf5d7940b2938e5590610ca290859085904290613641565b60405180910390a2505050565b6001600160a01b0381811660009081526020819052604090205460609116610ce95760405162461bcd60e51b815260040161046b90613464565b6001600160a01b038216600090815260026020908152604080832080548251818502810185019093528083529193909284015b82821015610fb757838290600052602060002090600602016040518060c0016040529081600082018054610d4f9061348c565b80601f0160208091040260200160405190810160405280929190818152602001828054610d7b9061348c565b8015610dc85780601f10610d9d57610100808354040283529160200191610dc8565b820191906000526020600020905b815481529060010190602001808311610dab57829003601f168201915b50505050508152602001600182018054610de19061348c565b80601f0160208091040260200160405190810160405280929190818152602001828054610e0d9061348c565b8015610e5a5780601f10610e2f57610100808354040283529160200191610e5a565b820191906000526020600020905b815481529060010190602001808311610e3d57829003601f168201915b505050918352505060028201546001600160a01b03166020820152600382018054604090920191610e8a9061348c565b80601f0160208091040260200160405190810160405280929190818152602001828054610eb69061348c565b8015610f035780601f10610ed857610100808354040283529160200191610f03565b820191906000526020600020905b815481529060010190602001808311610ee657829003601f168201915b5050505050815260200160048201548152602001600582018054610f269061348c565b80601f0160208091040260200160405190810160405280929190818152602001828054610f529061348c565b8015610f9f5780601f10610f7457610100808354040283529160200191610f9f565b820191906000526020600020905b815481529060010190602001808311610f8257829003601f168201915b50505050508152505081526020019060010190610d1c565b505050509050919050565b6006546001600160a01b0316331480610fe557506007546001600160a01b031633145b80610ffa57506005546001600160a01b031633145b6110165760405162461bcd60e51b815260040161046b906134c6565b6001600160a01b0385166110635760405162461bcd60e51b8152602060048201526014602482015273496e76616c69642063726f70206164647265737360601b604482015260640161046b565b6001600160a01b0384166110b25760405162461bcd60e51b8152602060048201526016602482015275496e76616c6964206661726d6572206164647265737360501b604482015260640161046b565b60008351116111035760405162461bcd60e51b815260206004820152601960248201527f43726f7020636f64652063616e6e6f7420626520656d70747900000000000000604482015260640161046b565b60008251116111505760405162461bcd60e51b81526020600482015260196024820152784950465320686173682063616e6e6f7420626520656d70747960381b604482015260640161046b565b600081511161119d5760405162461bcd60e51b81526020600482015260196024820152784461746120686173682063616e6e6f7420626520656d70747960381b604482015260640161046b565b60408051610120810182526001600160a01b03808816808352878216602080850191825284860189815260608601899052608086018890524260a0870152600160c0870181905287518084018952600080825260e089019190915288518085018a528181526101008901529485529184905295909220845181549085166001600160a01b03199182161782559151928101805493909416929091169190911790915591519091829160028201906112549082613581565b50606082015160038201906112699082613581565b506080820151600482019061127e9082613581565b5060a0820151600582015560c082015160068201805460ff191691151591909117905560e082015160078201906112b59082613581565b5061010082015160088201906112cb9082613581565b5050506001600160a01b03851660009081526004602052604081208054916112f283613677565b90915550506008805490600061130783613677565b9190505550846001600160a01b0316866001600160a01b03167f6b9704724dd26eb441041c4b77bf7b1985fd51c004c9717bf101ba73f58b4fe786868642604051611355949392919061369e565b60405180910390a3505050505050565b60016020819052600091825260409091208054918101546002820180546001600160a01b0394851694909216929161139c9061348c565b80601f01602080910402602001604051908101604052809291908181526020018280546113c89061348c565b80156114155780601f106113ea57610100808354040283529160200191611415565b820191906000526020600020905b8154815290600101906020018083116113f857829003601f168201915b50505050509080600301805461142a9061348c565b80601f01602080910402602001604051908101604052809291908181526020018280546114569061348c565b80156114a35780601f10611478576101008083540402835291602001916114a3565b820191906000526020600020905b81548152906001019060200180831161148657829003601f168201915b50505050600483015460058401546006909401549293909290915060ff1687565b6006546001600160a01b03163314806114e757506007546001600160a01b031633145b806114fc57506005546001600160a01b031633145b6115185760405162461bcd60e51b815260040161046b906134c6565b6001600160a01b038681166000908152602081905260409020541661154f5760405162461bcd60e51b815260040161046b90613464565b60008551116115a05760405162461bcd60e51b815260206004820152601960248201527f5374657020747970652063616e6e6f7420626520656d70747900000000000000604482015260640161046b565b60008451116115f15760405162461bcd60e51b815260206004820152601b60248201527f4465736372697074696f6e2063616e6e6f7420626520656d7074790000000000604482015260640161046b565b6001600160a01b03831661163f5760405162461bcd60e51b8152602060048201526015602482015274496e76616c6964206163746f72206164647265737360581b604482015260640161046b565b6040805160c08101825286815260208082018790526001600160a01b03808716838501526060830186905242608084015260a0830185905289166000908152600282529283208054600181018255908452922081519192839260069091029091019081906116ad9082613581565b50602082015160018201906116c29082613581565b5060408201516002820180546001600160a01b0319166001600160a01b03909216919091179055606082015160038201906116fd9082613581565b506080820151600482015560a0820151600582019061171c9082613581565b50505050505050505050565b6000806001600160a01b03166003836040516117449190613516565b908152604051908190036020019020546001600160a01b03160361179e5760405162461bcd60e51b815260206004820152601160248201527014548818dbd919481b9bdd08199bdd5b99607a1b604482015260640161046b565b6003826040516117ae9190613516565b908152604051908190036020019020546001600160a01b031692915050565b6005546001600160a01b031633146117f75760405162461bcd60e51b815260040161046b906136e9565b6001600160a01b0382166118595760405162461bcd60e51b8152602060048201526024808201527f496e76616c6964206661726d65722d676f767420636f6e7472616374206164646044820152637265737360e01b606482015260840161046b565b6001600160a01b0381166118be5760405162461bcd60e51b815260206004820152602660248201527f496e76616c696420676f76742d637573746f6d657220636f6e7472616374206160448201526564647265737360d01b606482015260840161046b565b600680546001600160a01b039384166001600160a01b03199182161790915560078054929093169116179055565b6006546001600160a01b031633148061190f57506007546001600160a01b031633145b8061192457506005546001600160a01b031633145b6119405760405162461bcd60e51b815260040161046b906134c6565b6001600160a01b03838116600090815260208190526040902054166119775760405162461bcd60e51b815260040161046b90613464565b60008251116119c45760405162461bcd60e51b81526020600482015260196024820152784950465320686173682063616e6e6f7420626520656d70747960381b604482015260640161046b565b6000815111611a115760405162461bcd60e51b81526020600482015260196024820152784461746120686173682063616e6e6f7420626520656d70747960381b604482015260640161046b565b6001600160a01b0383166000908152602081905260409020600301611a368382613581565b506001600160a01b0383166000908152602081905260409020600401611a5c8282613581565b50826001600160a01b03167f6ed34d4839d448f92198b0d9630346d2a30d3083973d674d4653b5a9ca49426c838342604051610ca293929190613641565b6006546001600160a01b0316331480611abd57506007546001600160a01b031633145b80611ad257506005546001600160a01b031633145b611aee5760405162461bcd60e51b815260040161046b906134c6565b6001600160a01b0385811660009081526020819052604090205416611b255760405162461bcd60e51b815260040161046b90613464565b6001600160a01b038416611b7b5760405162461bcd60e51b815260206004820152601860248201527f496e76616c696420766572696669657220616464726573730000000000000000604482015260640161046b565b6000835111611bd65760405162461bcd60e51b815260206004820152602160248201527f566572696669636174696f6e20686173682063616e6e6f7420626520656d70746044820152607960f81b606482015260840161046b565b6064811115611c375760405162461bcd60e51b815260206004820152602760248201527f5175616c6974792073636f7265206d757374206265206265747765656e2030206044820152660616e64203130360cc1b606482015260840161046b565b6040805160e0810182526001600160a01b03808816808352878216602080850191825284860189815260608601899052608086018890524260a0870152600160c0870181905260009485529182905295909220845181549085166001600160a01b0319918216178255915192810180549390941692909116919091179091559151909182916002820190611ccb9082613581565b5060608201516003820190611ce09082613581565b506080820151600482015560a0820151600582015560c0909101516006909101805460ff191691151591909117905560098054906000611d1f83613677565b9190505550846001600160a01b0316866001600160a01b03167fe53dd09cb5c00b183162ed944d2ba5cab3d8eecd5ef3ca38216a988551a0bbe4864260405161135592919061372a565b611d71612b72565b611d79612bd2565b6001600160a01b0383811660009081526020819052604090205460609116611db35760405162461bcd60e51b815260040161046b90613464565b6001600160a01b03808516600090815260208181526040808320600180845282852060028086529584902084516101208101865284548916815292840154909716948201949094529381018054919593949286929084019190611e159061348c565b80601f0160208091040260200160405190810160405280929190818152602001828054611e419061348c565b8015611e8e5780601f10611e6357610100808354040283529160200191611e8e565b820191906000526020600020905b815481529060010190602001808311611e7157829003601f168201915b50505050508152602001600382018054611ea79061348c565b80601f0160208091040260200160405190810160405280929190818152602001828054611ed39061348c565b8015611f205780601f10611ef557610100808354040283529160200191611f20565b820191906000526020600020905b815481529060010190602001808311611f0357829003601f168201915b50505050508152602001600482018054611f399061348c565b80601f0160208091040260200160405190810160405280929190818152602001828054611f659061348c565b8015611fb25780601f10611f8757610100808354040283529160200191611fb2565b820191906000526020600020905b815481529060010190602001808311611f9557829003601f168201915b505050918352505060058201546020820152600682015460ff1615156040820152600782018054606090920191611fe89061348c565b80601f01602080910402602001604051908101604052809291908181526020018280546120149061348c565b80156120615780601f1061203657610100808354040283529160200191612061565b820191906000526020600020905b81548152906001019060200180831161204457829003601f168201915b5050505050815260200160088201805461207a9061348c565b80601f01602080910402602001604051908101604052809291908181526020018280546120a69061348c565b80156120f35780601f106120c8576101008083540402835291602001916120f3565b820191906000526020600020905b8154815290600101906020018083116120d657829003601f168201915b5050509190925250506040805160e08101825285546001600160a01b039081168252600187015416602082015260028601805494975090938693509184019161213b9061348c565b80601f01602080910402602001604051908101604052809291908181526020018280546121679061348c565b80156121b45780601f10612189576101008083540402835291602001916121b4565b820191906000526020600020905b81548152906001019060200180831161219757829003601f168201915b505050505081526020016003820180546121cd9061348c565b80601f01602080910402602001604051908101604052809291908181526020018280546121f99061348c565b80156122465780601f1061221b57610100808354040283529160200191612246565b820191906000526020600020905b81548152906001019060200180831161222957829003601f168201915b5050505050815260200160048201548152602001600582015481526020016006820160009054906101000a900460ff161515151581525050915080805480602002602001604051908101604052809291908181526020016000905b8282101561253c57838290600052602060002090600602016040518060c00160405290816000820180546122d49061348c565b80601f01602080910402602001604051908101604052809291908181526020018280546123009061348c565b801561234d5780601f106123225761010080835404028352916020019161234d565b820191906000526020600020905b81548152906001019060200180831161233057829003601f168201915b505050505081526020016001820180546123669061348c565b80601f01602080910402602001604051908101604052809291908181526020018280546123929061348c565b80156123df5780601f106123b4576101008083540402835291602001916123df565b820191906000526020600020905b8154815290600101906020018083116123c257829003601f168201915b505050918352505060028201546001600160a01b0316602082015260038201805460409092019161240f9061348c565b80601f016020809104026020016040519081016040528092919081815260200182805461243b9061348c565b80156124885780601f1061245d57610100808354040283529160200191612488565b820191906000526020600020905b81548152906001019060200180831161246b57829003601f168201915b50505050508152602001600482015481526020016005820180546124ab9061348c565b80601f01602080910402602001604051908101604052809291908181526020018280546124d79061348c565b80156125245780601f106124f957610100808354040283529160200191612524565b820191906000526020600020905b81548152906001019060200180831161250757829003601f168201915b505050505081525050815260200190600101906122a1565b5050505090509250925092509193909250565b6000602081905290815260409020805460018201546002830180546001600160a01b039384169492909316926125849061348c565b80601f01602080910402602001604051908101604052809291908181526020018280546125b09061348c565b80156125fd5780601f106125d2576101008083540402835291602001916125fd565b820191906000526020600020905b8154815290600101906020018083116125e057829003601f168201915b5050505050908060030180546126129061348c565b80601f016020809104026020016040519081016040528092919081815260200182805461263e9061348c565b801561268b5780601f106126605761010080835404028352916020019161268b565b820191906000526020600020905b81548152906001019060200180831161266e57829003601f168201915b5050505050908060040180546126a09061348c565b80601f01602080910402602001604051908101604052809291908181526020018280546126cc9061348c565b80156127195780601f106126ee57610100808354040283529160200191612719565b820191906000526020600020905b8154815290600101906020018083116126fc57829003601f168201915b50505050600583015460068401546007850180549495929460ff9092169350906127429061348c565b80601f016020809104026020016040519081016040528092919081815260200182805461276e9061348c565b80156127bb5780601f10612790576101008083540402835291602001916127bb565b820191906000526020600020905b81548152906001019060200180831161279e57829003601f168201915b5050505050908060080180546127d09061348c565b80601f01602080910402602001604051908101604052809291908181526020018280546127fc9061348c565b80156128495780601f1061281e57610100808354040283529160200191612849565b820191906000526020600020905b81548152906001019060200180831161282c57829003601f168201915b5050505050905089565b61285b612bd2565b6001600160a01b03828116600090815260016020526040902054166128c25760405162461bcd60e51b815260206004820152601d60248201527f566572696669636174696f6e207265636f7264206e6f7420666f756e64000000604482015260640161046b565b6001600160a01b03808316600090815260016020818152604092839020835160e081018552815486168152928101549094169082015260028301805491939284019161290d9061348c565b80601f01602080910402602001604051908101604052809291908181526020018280546129399061348c565b80156129865780601f1061295b57610100808354040283529160200191612986565b820191906000526020600020905b81548152906001019060200180831161296957829003601f168201915b5050505050815260200160038201805461299f9061348c565b80601f01602080910402602001604051908101604052809291908181526020018280546129cb9061348c565b8015612a185780601f106129ed57610100808354040283529160200191612a18565b820191906000526020600020905b8154815290600101906020018083116129fb57829003601f168201915b5050509183525050600482015460208201526005820154604082015260069091015460ff16151560609091015292915050565b6005546001600160a01b03163314612a755760405162461bcd60e51b815260040161046b906136e9565b6001600160a01b038116612acb5760405162461bcd60e51b815260206004820152601960248201527f496e76616c6964206e6577206f776e6572206164647265737300000000000000604482015260640161046b565b600580546001600160a01b0319166001600160a01b0392909216919091179055565b6005546001600160a01b03163314612b175760405162461bcd60e51b815260040161046b906136e9565b6001600160a01b0381811660009081526020819052604090205416612b4e5760405162461bcd60e51b815260040161046b90613464565b6001600160a01b03166000908152602081905260409020600601805460ff19169055565b60405180610120016040528060006001600160a01b0316815260200160006001600160a01b031681526020016060815260200160608152602001606081526020016000815260200160001515815260200160608152602001606081525090565b6040518060e0016040528060006001600160a01b0316815260200160006001600160a01b03168152602001606081526020016060815260200160008152602001600081526020016000151581525090565b80356001600160a01b0381168114612c3a57600080fd5b919050565b600060208284031215612c5157600080fd5b612c5a82612c23565b9392505050565b60005b83811015612c7c578181015183820152602001612c64565b50506000910152565b60008151808452612c9d816020860160208601612c61565b601f01601f19169290920160200192915050565b80516001600160a01b0316825260006101206020830151612cdd60208601826001600160a01b03169052565b506040830151816040860152612cf582860182612c85565b91505060608301518482036060860152612d0f8282612c85565b91505060808301518482036080860152612d298282612c85565b91505060a083015160a085015260c0830151612d4960c086018215159052565b5060e083015184820360e0860152612d618282612c85565b9150506101008084015185830382870152612d7c8382612c85565b9695505050505050565b602081526000612c5a6020830184612cb1565b60008060408385031215612dac57600080fd5b612db583612c23565b946020939093013593505050565b60c081526000612dd660c0830189612c85565b8281036020840152612de88189612c85565b6001600160a01b038816604085015283810360608501529050612e0b8187612c85565b905084608084015282810360a0840152612e258185612c85565b9998505050505050505050565b634e487b7160e01b600052604160045260246000fd5b600082601f830112612e5957600080fd5b813567ffffffffffffffff80821115612e7457612e74612e32565b604051601f8301601f19908116603f01168101908282118183101715612e9c57612e9c612e32565b81604052838152866020858801011115612eb557600080fd5b836020870160208301376000602085830101528094505050505092915050565b600080600060608486031215612eea57600080fd5b612ef384612c23565b9250602084013567ffffffffffffffff80821115612f1057600080fd5b612f1c87838801612e48565b93506040860135915080821115612f3257600080fd5b50612f3f86828701612e48565b9150509250925092565b600081518084526020808501808196508360051b8101915082860160005b8581101561300d578284038952815160c08151818752612f8982880182612c85565b9150508682015186820388880152612fa18282612c85565b6040848101516001600160a01b031690890152606080850151898303828b01529193509150612fd08382612c85565b92505050608080830151818801525060a08083015192508682038188015250612ff98183612c85565b9a87019a9550505090840190600101612f67565b5091979650505050505050565b602081526000612c5a6020830184612f49565b600080600080600060a0868803121561304557600080fd5b61304e86612c23565b945061305c60208701612c23565b9350604086013567ffffffffffffffff8082111561307957600080fd5b61308589838a01612e48565b9450606088013591508082111561309b57600080fd5b6130a789838a01612e48565b935060808801359150808211156130bd57600080fd5b506130ca88828901612e48565b9150509295509295909350565b6001600160a01b0388811682528716602082015260e06040820181905260009061310390830188612c85565b82810360608401526131158188612c85565b6080840196909652505060a0810192909252151560c090910152949350505050565b60008060008060008060c0878903121561315057600080fd5b61315987612c23565b9550602087013567ffffffffffffffff8082111561317657600080fd5b6131828a838b01612e48565b9650604089013591508082111561319857600080fd5b6131a48a838b01612e48565b95506131b260608a01612c23565b945060808901359150808211156131c857600080fd5b6131d48a838b01612e48565b935060a08901359150808211156131ea57600080fd5b506131f789828a01612e48565b9150509295509295509295565b60006020828403121561321657600080fd5b813567ffffffffffffffff81111561322d57600080fd5b61323984828501612e48565b949350505050565b6000806040838503121561325457600080fd5b61325d83612c23565b915061326b60208401612c23565b90509250929050565b600080600080600060a0868803121561328c57600080fd5b61329586612c23565b94506132a360208701612c23565b9350604086013567ffffffffffffffff808211156132c057600080fd5b6132cc89838a01612e48565b945060608801359150808211156132e257600080fd5b506132ef88828901612e48565b95989497509295608001359392505050565b600060018060a01b0380835116845280602084015116602085015250604082015160e0604085015261333660e0850182612c85565b90506060830151848203606086015261334f8282612c85565b9150506080830151608085015260a083015160a085015260c0830151151560c08501528091505092915050565b60608152600061338f6060830186612cb1565b82810360208401526133a18186613301565b90508281036040840152612d7c8185612f49565b6001600160a01b038a8116825289166020820152610120604082018190526000906133e28382018b612c85565b905082810360608401526133f6818a612c85565b9050828103608084015261340a8189612c85565b90508660a084015285151560c084015282810360e084015261342c8186612c85565b90508281036101008401526134418185612c85565b9c9b505050505050505050505050565b602081526000612c5a6020830184613301565b6020808252600e908201526d10dc9bdc081b9bdd08199bdd5b9960921b604082015260600190565b600181811c908216806134a057607f821691505b6020821081036134c057634e487b7160e01b600052602260045260246000fd5b50919050565b60208082526030908201527f4f6e6c7920617574686f72697a656420636f6e7472616374732063616e20636160408201526f3636103a3434b990333ab731ba34b7b760811b606082015260800190565b60008251613528818460208701612c61565b9190910192915050565b601f82111561357c57600081815260208120601f850160051c810160208610156135595750805b601f850160051c820191505b8181101561357857828155600101613565565b5050505b505050565b815167ffffffffffffffff81111561359b5761359b612e32565b6135af816135a9845461348c565b84613532565b602080601f8311600181146135e457600084156135cc5750858301515b600019600386901b1c1916600185901b178555613578565b600085815260208120601f198616915b82811015613613578886015182559484019460019091019084016135f4565b50858210156136315787850151600019600388901b60f8161c191681555b5050505050600190811b01905550565b6060815260006136546060830186612c85565b82810360208401526136668186612c85565b915050826040830152949350505050565b60006001820161369757634e487b7160e01b600052601160045260246000fd5b5060010190565b6080815260006136b16080830187612c85565b82810360208401526136c38187612c85565b905082810360408401526136d78186612c85565b91505082606083015295945050505050565b60208082526021908201527f4f6e6c79206f776e65722063616e2063616c6c20746869732066756e6374696f6040820152603760f91b606082015260800190565b60408152600061373d6040830185612c85565b9050826020830152939250505056fea2646970667358221220acfd407a922c91b911fec22f1d8aa07c8753bea391b68abd9bc1cb5020114eb664736f6c63430008140033",
  "linkReferences": {},
  "deployedLinkReferences": {}
}