{
  "_format": "hh-sol-artifact-1",
  "contractName": "PaymentContract",
  "sourceName": "contracts/PaymentContract.sol",
  "abi": [
    {
      "inputs": [
        {
          "internalType": "address",
          "name": "_traceabilityContract",
          "type": "address"
        }
      ],
      "stateMutability": "nonpayable",
      "type": "constructor"
    },
    {
      "anonymous": false,
      "inputs": [
        {
          "indexed": true,
          "internalType": "bytes32",
          "name": "paymentId",
          "type": "bytes32"
        },
        {
          "indexed": true,
          "internalType": "address",
          "name": "payer",
          "type": "address"
        },
        {
          "indexed": true,
          "internalType": "address",
          "name": "payee",
          "type": "address"
        },
        {
          "indexed": false,
          "internalType": "uint256",
          "name": "amount",
          "type": "uint256"
        },
        {
          "indexed": false,
          "internalType": "string",
          "name": "transactionHash",
          "type": "string"
        },
        {
          "indexed": false,
          "internalType": "uint256",
          "name": "timestamp",
          "type": "uint256"
        }
      ],
      "name": "PaymentCompleted",
      "type": "event"
    },
    {
      "anonymous": false,
      "inputs": [
        {
          "indexed": true,
          "internalType": "bytes32",
          "name": "paymentId",
          "type": "bytes32"
        },
        {
          "indexed": true,
          "internalType": "address",
          "name": "payer",
          "type": "address"
        },
        {
          "indexed": false,
          "internalType": "string",
          "name": "reason",
          "type": "string"
        },
        {
          "indexed": false,
          "internalType": "uint256",
          "name": "timestamp",
          "type": "uint256"
        }
      ],
      "name": "PaymentFailed",
      "type": "event"
    },
    {
      "anonymous": false,
      "inputs": [
        {
          "indexed": true,
          "internalType": "bytes32",
          "name": "paymentId",
          "type": "bytes32"
        },
        {
          "indexed": true,
          "internalType": "address",
          "name": "payer",
          "type": "address"
        },
        {
          "indexed": true,
          "internalType": "address",
          "name": "payee",
          "type": "address"
        },
        {
          "indexed": false,
          "internalType": "uint256",
          "name": "amount",
          "type": "uint256"
        },
        {
          "indexed": false,
          "internalType": "string",
          "name": "transactionType",
          "type": "string"
        },
        {
          "indexed": false,
          "internalType": "uint256",
          "name": "timestamp",
          "type": "uint256"
        }
      ],
      "name": "PaymentInitiated",
      "type": "event"
    },
    {
      "anonymous": false,
      "inputs": [
        {
          "indexed": true,
          "internalType": "bytes32",
          "name": "paymentId",
          "type": "bytes32"
        },
        {
          "indexed": true,
          "internalType": "address",
          "name": "originalPayer",
          "type": "address"
        },
        {
          "indexed": true,
          "internalType": "address",
          "name": "originalPayee",
          "type": "address"
        },
        {
          "indexed": false,
          "internalType": "uint256",
          "name": "refundAmount",
          "type": "uint256"
        },
        {
          "indexed": false,
          "internalType": "string",
          "name": "reason",
          "type": "string"
        },
        {
          "indexed": false,
          "internalType": "uint256",
          "name": "timestamp",
          "type": "uint256"
        }
      ],
      "name": "RefundProcessed",
      "type": "event"
    },
    {
      "inputs": [
        {
          "internalType": "bytes32",
          "name": "_paymentId",
          "type": "bytes32"
        },
        {
          "internalType": "string",
          "name": "_transactionHash",
          "type": "string"
        }
      ],
      "name": "completePayment",
      "outputs": [],
      "stateMutability": "nonpayable",
      "type": "function"
    },
    {
      "inputs": [
        {
          "internalType": "string",
          "name": "_transactionId",
          "type": "string"
        },
        {
          "internalType": "address",
          "name": "_payer",
          "type": "address"
        },
        {
          "internalType": "uint256",
          "name": "_timestamp",
          "type": "uint256"
        }
      ],
      "name": "generatePaymentId",
      "outputs": [
        {
          "internalType": "bytes32",
          "name": "",
          "type": "bytes32"
        }
      ],
      "stateMutability": "pure",
      "type": "function"
    },
    {
      "inputs": [],
      "name": "getContractBalance",
      "outputs": [
        {
          "internalType": "uint256",
          "name": "",
          "type": "uint256"
        }
      ],
      "stateMutability": "view",
      "type": "function"
    },
    {
      "inputs": [
        {
          "internalType": "bytes32",
          "name": "_paymentId",
          "type": "bytes32"
        }
      ],
      "name": "getPayment",
      "outputs": [
        {
          "components": [
            {
              "internalType": "bytes32",
              "name": "paymentId",
              "type": "bytes32"
            },
            {
              "internalType": "address",
              "name": "payer",
              "type": "address"
            },
            {
              "internalType": "address",
              "name": "payee",
              "type": "address"
            },
            {
              "internalType": "uint256",
              "name": "amount",
              "type": "uint256"
            },
            {
              "internalType": "string",
              "name": "transactionType",
              "type": "string"
            },
            {
              "internalType": "string",
              "name": "status",
              "type": "string"
            },
            {
              "internalType": "string",
              "name": "transactionHash",
              "type": "string"
            },
            {
              "internalType": "uint256",
              "name": "timestamp",
              "type": "uint256"
            },
            {
              "internalType": "string",
              "name": "metadata",
              "type": "string"
            },
            {
              "internalType": "bool",
              "name": "isActive",
              "type": "bool"
            }
          ],
          "internalType": "struct PaymentContract.Payment",
          "name": "",
          "type": "tuple"
        }
      ],
      "stateMutability": "view",
      "type": "function"
    },
    {
      "inputs": [],
      "name": "getPlatformStats",
      "outputs": [
        {
          "internalType": "uint256",
          "name": "",
          "type": "uint256"
        },
        {
          "internalType": "uint256",
          "name": "",
          "type": "uint256"
        },
        {
          "internalType": "uint256",
          "name": "",
          "type": "uint256"
        }
      ],
      "stateMutability": "view",
      "type": "function"
    },
    {
      "inputs": [
        {
          "internalType": "address",
          "name": "_user",
          "type": "address"
        }
      ],
      "name": "getUserStats",
      "outputs": [
        {
          "internalType": "uint256",
          "name": "",
          "type": "uint256"
        },
        {
          "internalType": "uint256",
          "name": "",
          "type": "uint256"
        },
        {
          "internalType": "uint256",
          "name": "",
          "type": "uint256"
        }
      ],
      "stateMutability": "view",
      "type": "function"
    },
    {
      "inputs": [
        {
          "internalType": "bytes32",
          "name": "_paymentId",
          "type": "bytes32"
        },
        {
          "internalType": "address",
          "name": "_payee",
          "type": "address"
        },
        {
          "internalType": "uint256",
          "name": "_amount",
          "type": "uint256"
        },
        {
          "internalType": "string",
          "name": "_transactionType",
          "type": "string"
        },
        {
          "internalType": "string",
          "name": "_metadata",
          "type": "string"
        }
      ],
      "name": "initiatePayment",
      "outputs": [],
      "stateMutability": "payable",
      "type": "function"
    },
    {
      "inputs": [],
      "name": "owner",
      "outputs": [
        {
          "internalType": "address",
          "name": "",
          "type": "address"
        }
      ],
      "stateMutability": "view",
      "type": "function"
    },
    {
      "inputs": [
        {
          "internalType": "bytes32",
          "name": "_paymentId",
          "type": "bytes32"
        }
      ],
      "name": "pausePayment",
      "outputs": [],
      "stateMutability": "nonpayable",
      "type": "function"
    },
    {
      "inputs": [
        {
          "internalType": "bytes32",
          "name": "",
          "type": "bytes32"
        }
      ],
      "name": "payments",
      "outputs": [
        {
          "internalType": "bytes32",
          "name": "paymentId",
          "type": "bytes32"
        },
        {
          "internalType": "address",
          "name": "payer",
          "type": "address"
        },
        {
          "internalType": "address",
          "name": "payee",
          "type": "address"
        },
        {
          "internalType": "uint256",
          "name": "amount",
          "type": "uint256"
        },
        {
          "internalType": "string",
          "name": "transactionType",
          "type": "string"
        },
        {
          "internalType": "string",
          "name": "status",
          "type": "string"
        },
        {
          "internalType": "string",
          "name": "transactionHash",
          "type": "string"
        },
        {
          "internalType": "uint256",
          "name": "timestamp",
          "type": "uint256"
        },
        {
          "internalType": "string",
          "name": "metadata",
          "type": "string"
        },
        {
          "internalType": "bool",
          "name": "isActive",
          "type": "bool"
        }
      ],
      "stateMutability": "view",
      "type": "function"
    },
    {
      "inputs": [],
      "name": "platformFee",
      "outputs": [
        {
          "internalType": "uint256",
          "name": "percentage",
          "type": "uint256"
        },
        {
          "internalType": "address",
          "name": "treasury",
          "type": "address"
        },
        {
          "internalType": "uint256",
          "name": "totalCollected",
          "type": "uint256"
        }
      ],
      "stateMutability": "view",
      "type": "function"
    },
    {
      "inputs": [
        {
          "internalType": "bytes32",
          "name": "_paymentId",
          "type": "bytes32"
        },
        {
          "internalType": "string",
          "name": "_reason",
          "type": "string"
        }
      ],
      "name": "processPaymentFailure",
      "outputs": [],
      "stateMutability": "nonpayable",
      "type": "function"
    },
    {
      "inputs": [
        {
          "internalType": "bytes32",
          "name": "_paymentId",
          "type": "bytes32"
        },
        {
          "internalType": "uint256",
          "name": "_refundAmount",
          "type": "uint256"
        },
        {
          "internalType": "string",
          "name": "_reason",
          "type": "string"
        }
      ],
      "name": "processRefund",
      "outputs": [],
      "stateMutability": "nonpayable",
      "type": "function"
    },
    {
      "inputs": [
        {
          "internalType": "bytes32",
          "name": "_paymentId",
          "type": "bytes32"
        }
      ],
      "name": "resumePayment",
      "outputs": [],
      "stateMutability": "nonpayable",
      "type": "function"
    },
    {
      "inputs": [],
      "name": "totalPayments",
      "outputs": [
        {
          "internalType": "uint256",
          "name": "",
          "type": "uint256"
        }
      ],
      "stateMutability": "view",
      "type": "function"
    },
    {
      "inputs": [],
      "name": "totalPlatformFees",
      "outputs": [
        {
          "internalType": "uint256",
          "name": "",
          "type": "uint256"
        }
      ],
      "stateMutability": "view",
      "type": "function"
    },
    {
      "inputs": [],
      "name": "totalVolume",
      "outputs": [
        {
          "internalType": "uint256",
          "name": "",
          "type": "uint256"
        }
      ],
      "stateMutability": "view",
      "type": "function"
    },
    {
      "inputs": [],
      "name": "traceabilityContract",
      "outputs": [
        {
          "internalType": "address",
          "name": "",
          "type": "address"
        }
      ],
      "stateMutability": "view",
      "type": "function"
    },
    {
      "inputs": [
        {
          "internalType": "uint256",
          "name": "_percentage",
          "type": "uint256"
        },
        {
          "internalType": "address",
          "name": "_treasury",
          "type": "address"
        }
      ],
      "name": "updatePlatformFee",
      "outputs": [],
      "stateMutability": "nonpayable",
      "type": "function"
    },
    {
      "inputs": [
        {
          "internalType": "address",
          "name": "_traceabilityContract",
          "type": "address"
        }
      ],
      "name": "updateTraceabilityContract",
      "outputs": [],
      "stateMutability": "nonpayable",
      "type": "function"
    },
    {
      "inputs": [
        {
          "internalType": "address",
          "name": "",
          "type": "address"
        }
      ],
      "name": "userBalances",
      "outputs": [
        {
          "internalType": "uint256",
          "name": "",
          "type": "uint256"
        }
      ],
      "stateMutability": "view",
      "type": "function"
    },
    {
      "inputs": [
        {
          "internalType": "address",
          "name": "",
          "type": "address"
        }
      ],
      "name": "userTotalPaid",
      "outputs": [
        {
          "internalType": "uint256",
          "name": "",
          "type": "uint256"
        }
      ],
      "stateMutability": "view",
      "type": "function"
    },
    {
      "inputs": [
        {
          "internalType": "address",
          "name": "",
          "type": "address"
        }
      ],
      "name": "userTotalReceived",
      "outputs": [
        {
          "internalType": "uint256",
          "name": "",
          "type": "uint256"
        }
      ],
      "stateMutability": "view",
      "type": "function"
    },
    {
      "inputs": [
        {
          "internalType": "uint256",
          "name": "_amount",
          "type": "uint256"
        }
      ],
      "name": "withdrawBalance",
      "outputs": [],
      "stateMutability": "nonpayable",
      "type": "function"
    },
    {
      "stateMutability": "payable",
      "type": "receive"
    }
  ],
  "bytecode": "0x608060405234801561001057600080fd5b5060405162002263380380620022638339810160408190526100319161009a565b60078054336001600160a01b031991821681179092556008805482166001600160a01b0394909416939093179092556040805160608101825260fa80825260208201849052600091909201819052600491909155600580549093169091179091556006556100ca565b6000602082840312156100ac57600080fd5b81516001600160a01b03811681146100c357600080fd5b9392505050565b61218980620000da6000396000f3fe60806040526004361061014e5760003560e01c80637fc3e9ff116100b6578063d3631fa51161006f578063d3631fa514610440578063da76d5cd14610456578063db14195f14610476578063e66eefc814610496578063ecd7b387146104c3578063fc5677da146104e357600080fd5b80637fc3e9ff1461036857806380eef85d146103a0578063865d05c1146103c05780638da5cb5b146103e0578063a98668ac14610400578063ae7887b21461042057600080fd5b806326232a2e1161010857806326232a2e146102655780634e43603a146102b05780635c9b2539146102fd5780635f81a57c146103125780636f9fb98a14610328578063794f75ba1461033b57600080fd5b80625b44871461015a57806305736852146101835780630716326d146101a3578063136d8883146101d95780631b3e2cc91461020b57806326224c641461023857600080fd5b3661015557005b600080fd5b34801561016657600080fd5b5061017060095481565b6040519081526020015b60405180910390f35b34801561018f57600080fd5b5061017061019e366004611a03565b610503565b3480156101af57600080fd5b506101c36101be366004611a5a565b610539565b60405161017a9a99989796959493929190611ac3565b3480156101e557600080fd5b50600954600a54600b545b6040805193845260208401929092529082015260600161017a565b34801561021757600080fd5b50610170610226366004611b5b565b60036020526000908152604090205481565b34801561024457600080fd5b50610170610253366004611b5b565b60016020526000908152604090205481565b34801561027157600080fd5b5060045460055460065461028d92916001600160a01b03169083565b604080519384526001600160a01b0390921660208401529082015260600161017a565b3480156102bc57600080fd5b506101f06102cb366004611b5b565b6001600160a01b0316600090815260026020908152604080832054600383528184205460019093529220549192909190565b61031061030b366004611b7d565b6107b8565b005b34801561031e57600080fd5b50610170600a5481565b34801561033457600080fd5b5047610170565b34801561034757600080fd5b50610170610356366004611b5b565b60026020526000908152604090205481565b34801561037457600080fd5b50600854610388906001600160a01b031681565b6040516001600160a01b03909116815260200161017a565b3480156103ac57600080fd5b506103106103bb366004611c05565b610ab1565b3480156103cc57600080fd5b506103106103db366004611c4c565b610e1c565b3480156103ec57600080fd5b50600754610388906001600160a01b031681565b34801561040c57600080fd5b5061031061041b366004611c05565b610f0d565b34801561042c57600080fd5b5061031061043b366004611b5b565b6110f1565b34801561044c57600080fd5b50610170600b5481565b34801561046257600080fd5b50610310610471366004611a5a565b611193565b34801561048257600080fd5b50610310610491366004611a5a565b61124b565b3480156104a257600080fd5b506104b66104b1366004611a5a565b6112be565b60405161017a9190611c78565b3480156104cf57600080fd5b506103106104de366004611d65565b6115f3565b3480156104ef57600080fd5b506103106104fe366004611a5a565b6118ce565b600083838360405160200161051a93929190611db5565b6040516020818303038152906040528051906020012090509392505050565b6000602081905290815260409020805460018201546002830154600384015460048501805494956001600160a01b03948516959390941693919261057c90611df4565b80601f01602080910402602001604051908101604052809291908181526020018280546105a890611df4565b80156105f55780601f106105ca576101008083540402835291602001916105f5565b820191906000526020600020905b8154815290600101906020018083116105d857829003601f168201915b50505050509080600501805461060a90611df4565b80601f016020809104026020016040519081016040528092919081815260200182805461063690611df4565b80156106835780601f1061065857610100808354040283529160200191610683565b820191906000526020600020905b81548152906001019060200180831161066657829003601f168201915b50505050509080600601805461069890611df4565b80601f01602080910402602001604051908101604052809291908181526020018280546106c490611df4565b80156107115780601f106106e657610100808354040283529160200191610711565b820191906000526020600020905b8154815290600101906020018083116106f457829003601f168201915b50505050509080600701549080600801805461072c90611df4565b80601f016020809104026020016040519081016040528092919081815260200182805461075890611df4565b80156107a55780601f1061077a576101008083540402835291602001916107a5565b820191906000526020600020905b81548152906001019060200180831161078857829003601f168201915b5050506009909301549192505060ff168a565b6001600160a01b03841661080b5760405162461bcd60e51b8152602060048201526015602482015274496e76616c6964207061796565206164647265737360581b60448201526064015b60405180910390fd5b6000831161085b5760405162461bcd60e51b815260206004820181905260248201527f416d6f756e74206d7573742062652067726561746572207468616e207a65726f6044820152606401610802565b823410156108ab5760405162461bcd60e51b815260206004820152601b60248201527f496e73756666696369656e74207061796d656e7420616d6f756e7400000000006044820152606401610802565b600085815260208190526040902054156109075760405162461bcd60e51b815260206004820152601960248201527f5061796d656e7420494420616c726561647920657869737473000000000000006044820152606401610802565b60408051610140810182528681523360208083019182526001600160a01b03888116848601908152606085018981526080860189815287518089018952600781526650454e44494e4760c81b8187015260a088015287518086018952600080825260c08901919091524260e089015261010088018a9052600161012089018190528e8252958190529790972086518155945193850180549484166001600160a01b0319958616179055905160028501805491909316931692909217905551600382015591519091829160048201906109df9082611e7d565b5060a082015160058201906109f49082611e7d565b5060c08201516006820190610a099082611e7d565b5060e082015160078201556101008201516008820190610a299082611e7d565b5061012091909101516009918201805460ff19169115159190911790558054906000610a5483611f53565b9190505550846001600160a01b0316336001600160a01b0316877f3e466379556ec7a680e200456aa1d204f81d4e58111d00a4ff3fa1a464d4ecce878742604051610aa193929190611f6c565b60405180910390a4505050505050565b6000828152602081905260409020548290610ade5760405162461bcd60e51b815260040161080290611f95565b600083815260208181526040918290209151610b0891016650454e44494e4760c81b815260070190565b6040516020818303038152906040528051906020012081600501604051602001610b329190611fc5565b6040516020818303038152906040528051906020012014610b955760405162461bcd60e51b815260206004820152601d60248201527f5061796d656e74206e6f7420696e2070656e64696e67207374617475730000006044820152606401610802565b60018101546001600160a01b03163314610bf15760405162461bcd60e51b815260206004820152601f60248201527f4f6e6c792070617965722063616e20636f6d706c657465207061796d656e74006044820152606401610802565b60006127106004600001548360030154610c0b919061203b565b610c159190612058565b90506000818360030154610c29919061207a565b60028401546040519192506001600160a01b03169082156108fc029083906000818181858888f19350505050158015610c66573d6000803e3d6000fd5b506005546040516001600160a01b039091169083156108fc029084906000818181858888f19350505050158015610ca1573d6000803e3d6000fd5b5060408051808201909152600981526810d3d354131155115160ba1b60208201526005840190610cd19082611e7d565b5060068301610ce08682611e7d565b5060028301546001600160a01b031660009081526001602052604081208054839290610d0d90849061208d565b9091555050600383015460018401546001600160a01b031660009081526002602052604081208054909190610d4390849061208d565b909155505060028301546001600160a01b031660009081526003602052604081208054839290610d7490849061208d565b90915550506003830154600a8054600090610d9090849061208d565b9250508190555081600b6000828254610da9919061208d565b909155505060068054839190600090610dc390849061208d565b90915550506002830154600184015460038501546040516001600160a01b03938416939092169189917fff1b96c442d33797ea49a27946aab43da50bc293f04fb7cb42f98a90e270705c91610aa191908b904290611f6c565b6007546001600160a01b03163314610e465760405162461bcd60e51b8152600401610802906120a0565b6103e8821115610e905760405162461bcd60e51b81526020600482015260156024820152744665652063616e6e6f74206578636565642031302560581b6044820152606401610802565b6001600160a01b038116610ee65760405162461bcd60e51b815260206004820152601860248201527f496e76616c6964207472656173757279206164647265737300000000000000006044820152606401610802565b600491909155600580546001600160a01b0319166001600160a01b03909216919091179055565b6008546001600160a01b0316331480610f3057506007546001600160a01b031633145b610f4c5760405162461bcd60e51b8152600401610802906120e1565b6000828152602081905260409020548290610f795760405162461bcd60e51b815260040161080290611f95565b600083815260208181526040918290209151610fa391016650454e44494e4760c81b815260070190565b6040516020818303038152906040528051906020012081600501604051602001610fcd9190611fc5565b60405160208183030381529060405280519060200120146110305760405162461bcd60e51b815260206004820152601d60248201527f5061796d656e74206e6f7420696e2070656e64696e67207374617475730000006044820152606401610802565b600181015460038201546040516001600160a01b039092169181156108fc0291906000818181858888f19350505050158015611070573d6000803e3d6000fd5b5060408051808201909152600681526511905253115160d21b6020820152600582019061109d9082611e7d565b5060018101546040516001600160a01b039091169085907fbe2f849527cee2ebd5792cbe4475265f75b46e41461725d87bb0dbfe37d12575906110e39087904290612131565b60405180910390a350505050565b6007546001600160a01b0316331461111b5760405162461bcd60e51b8152600401610802906120a0565b6001600160a01b0381166111715760405162461bcd60e51b815260206004820152601860248201527f496e76616c696420636f6e7472616374206164647265737300000000000000006044820152606401610802565b600880546001600160a01b0319166001600160a01b0392909216919091179055565b6007546001600160a01b031633146111bd5760405162461bcd60e51b8152600401610802906120a0565b4781111561120d5760405162461bcd60e51b815260206004820152601d60248201527f496e73756666696369656e7420636f6e74726163742062616c616e63650000006044820152606401610802565b6007546040516001600160a01b039091169082156108fc029083906000818181858888f19350505050158015611247573d6000803e3d6000fd5b5050565b6007546001600160a01b031633146112755760405162461bcd60e51b8152600401610802906120a0565b60008181526020819052604090205481906112a25760405162461bcd60e51b815260040161080290611f95565b506000908152602081905260409020600901805460ff19169055565b60408051610140810182526000808252602080830182905282840182905260608084018390526080840181905260a0840181905260c0840181905260e08401839052610100840152610120830182905284825281905291909120546113355760405162461bcd60e51b815260040161080290611f95565b600082815260208181526040918290208251610140810184528154815260018201546001600160a01b03908116938201939093526002820154909216928201929092526003820154606082015260048201805491929160808401919061139a90611df4565b80601f01602080910402602001604051908101604052809291908181526020018280546113c690611df4565b80156114135780601f106113e857610100808354040283529160200191611413565b820191906000526020600020905b8154815290600101906020018083116113f657829003601f168201915b5050505050815260200160058201805461142c90611df4565b80601f016020809104026020016040519081016040528092919081815260200182805461145890611df4565b80156114a55780601f1061147a576101008083540402835291602001916114a5565b820191906000526020600020905b81548152906001019060200180831161148857829003601f168201915b505050505081526020016006820180546114be90611df4565b80601f01602080910402602001604051908101604052809291908181526020018280546114ea90611df4565b80156115375780601f1061150c57610100808354040283529160200191611537565b820191906000526020600020905b81548152906001019060200180831161151a57829003601f168201915b505050505081526020016007820154815260200160088201805461155a90611df4565b80601f016020809104026020016040519081016040528092919081815260200182805461158690611df4565b80156115d35780601f106115a8576101008083540402835291602001916115d3565b820191906000526020600020905b8154815290600101906020018083116115b657829003601f168201915b50505091835250506009919091015460ff16151560209091015292915050565b6008546001600160a01b031633148061161657506007546001600160a01b031633145b6116325760405162461bcd60e51b8152600401610802906120e1565b600083815260208190526040902054839061165f5760405162461bcd60e51b815260040161080290611f95565b60008481526020818152604091829020915161168b91016810d3d354131155115160ba1b815260090190565b60405160208183030381529060405280519060200120816005016040516020016116b59190611fc5565b60405160208183030381529060405280519060200120146117105760405162461bcd60e51b815260206004820152601560248201527414185e5b595b9d081b9bdd0818dbdb5c1b195d1959605a1b6044820152606401610802565b80600301548411156117705760405162461bcd60e51b8152602060048201526024808201527f526566756e6420616d6f756e742065786365656473207061796d656e7420616d6044820152631bdd5b9d60e21b6064820152608401610802565b60018101546040516001600160a01b039091169085156108fc029086906000818181858888f193505050501580156117ac573d6000803e3d6000fd5b50604080518082019091526008815267149151955391115160c21b602082015260058201906117db9082611e7d565b5060028101546001600160a01b03166000908152600160205260408120805486929061180890849061207a565b909155505060018101546001600160a01b03166000908152600260205260408120805486929061183990849061207a565b909155505060028101546001600160a01b03166000908152600360205260408120805486929061186a90849061207a565b9091555050600281015460018201546040516001600160a01b03928316929091169087907f0e293ad36fa567a6b37697e8b3838421c0980ccd879aa9e427d584576622ac68906118bf90899089904290611f6c565b60405180910390a45050505050565b6007546001600160a01b031633146118f85760405162461bcd60e51b8152600401610802906120a0565b60008181526020819052604090205481906119255760405162461bcd60e51b815260040161080290611f95565b506000908152602081905260409020600901805460ff19166001179055565b634e487b7160e01b600052604160045260246000fd5b600082601f83011261196b57600080fd5b813567ffffffffffffffff8082111561198657611986611944565b604051601f8301601f19908116603f011681019082821181831017156119ae576119ae611944565b816040528381528660208588010111156119c757600080fd5b836020870160208301376000602085830101528094505050505092915050565b80356001600160a01b03811681146119fe57600080fd5b919050565b600080600060608486031215611a1857600080fd5b833567ffffffffffffffff811115611a2f57600080fd5b611a3b8682870161195a565b935050611a4a602085016119e7565b9150604084013590509250925092565b600060208284031215611a6c57600080fd5b5035919050565b60005b83811015611a8e578181015183820152602001611a76565b50506000910152565b60008151808452611aaf816020860160208601611a73565b601f01601f19169290920160200192915050565b8a81526001600160a01b038a81166020830152891660408201526060810188905261014060808201819052600090611afd8382018a611a97565b905082810360a0840152611b118189611a97565b905082810360c0840152611b258188611a97565b90508560e0840152828103610100840152611b408186611a97565b9150508215156101208301529b9a5050505050505050505050565b600060208284031215611b6d57600080fd5b611b76826119e7565b9392505050565b600080600080600060a08688031215611b9557600080fd5b85359450611ba5602087016119e7565b935060408601359250606086013567ffffffffffffffff80821115611bc957600080fd5b611bd589838a0161195a565b93506080880135915080821115611beb57600080fd5b50611bf88882890161195a565b9150509295509295909350565b60008060408385031215611c1857600080fd5b82359150602083013567ffffffffffffffff811115611c3657600080fd5b611c428582860161195a565b9150509250929050565b60008060408385031215611c5f57600080fd5b82359150611c6f602084016119e7565b90509250929050565b602081528151602082015260006020830151611c9f60408401826001600160a01b03169052565b5060408301516001600160a01b0381166060840152506060830151608083015260808301516101408060a0850152611cdb610160850183611a97565b915060a0850151601f19808685030160c0870152611cf98483611a97565b935060c08701519150808685030160e0870152611d168483611a97565b935060e08701519150610100828188015280880151925050610120818786030181880152611d448584611a97565b94508088015192505050611d5b8286018215159052565b5090949350505050565b600080600060608486031215611d7a57600080fd5b8335925060208401359150604084013567ffffffffffffffff811115611d9f57600080fd5b611dab8682870161195a565b9150509250925092565b60008451611dc7818460208901611a73565b60609490941b6bffffffffffffffffffffffff191691909301908152601481019190915260340192915050565b600181811c90821680611e0857607f821691505b602082108103611e2857634e487b7160e01b600052602260045260246000fd5b50919050565b601f821115611e7857600081815260208120601f850160051c81016020861015611e555750805b601f850160051c820191505b81811015611e7457828155600101611e61565b5050505b505050565b815167ffffffffffffffff811115611e9757611e97611944565b611eab81611ea58454611df4565b84611e2e565b602080601f831160018114611ee05760008415611ec85750858301515b600019600386901b1c1916600185901b178555611e74565b600085815260208120601f198616915b82811015611f0f57888601518255948401946001909101908401611ef0565b5085821015611f2d5787850151600019600388901b60f8161c191681555b5050505050600190811b01905550565b634e487b7160e01b600052601160045260246000fd5b600060018201611f6557611f65611f3d565b5060010190565b838152606060208201526000611f856060830185611a97565b9050826040830152949350505050565b60208082526016908201527514185e5b595b9d08191bd95cc81b9bdd08195e1a5cdd60521b604082015260600190565b6000808354611fd381611df4565b60018281168015611feb57600181146120005761202f565b60ff198416875282151583028701945061202f565b8760005260208060002060005b858110156120265781548a82015290840190820161200d565b50505082870194505b50929695505050505050565b808202811582820484141761205257612052611f3d565b92915050565b60008261207557634e487b7160e01b600052601260045260246000fd5b500490565b8181038181111561205257612052611f3d565b8082018082111561205257612052611f3d565b60208082526021908201527f4f6e6c79206f776e65722063616e2063616c6c20746869732066756e6374696f6040820152603760f91b606082015260800190565b60208082526030908201527f4f6e6c7920617574686f72697a656420636f6e7472616374732063616e20636160408201526f3636103a3434b990333ab731ba34b7b760811b606082015260800190565b6040815260006121446040830185611a97565b9050826020830152939250505056fea26469706673582212209694aaa9e98c3fa4fa06e18e51322dc27cdb97aecb3ec004814931dfdbb1c4ed64736f6c63430008140033",
  "linkReferences": {},
  "deployedLinkReferences": {}
}