{
  "_format": "hh-sol-artifact-1",
  "contractName": "FarmerGovt",
  "sourceName": "contracts/FarmerGovt.sol",
  "abi": [
    {
      "inputs": [
        {
          "internalType": "address",
          "name": "_treasury",
          "type": "address"
        },
        {
          "internalType": "uint256",
          "name": "_platformFeePercentage",
          "type": "uint256"
        }
      ],
      "stateMutability": "nonpayable",
      "type": "constructor"
    },
    {
      "anonymous": false,
      "inputs": [
        {
          "indexed": true,
          "internalType": "bytes32",
          "name": "transactionId",
          "type": "bytes32"
        },
        {
          "indexed": true,
          "internalType": "address",
          "name": "farmerId",
          "type": "address"
        },
        {
          "indexed": false,
          "internalType": "uint256",
          "name": "amount",
          "type": "uint256"
        },
        {
          "indexed": false,
          "internalType": "string",
          "name": "paymentMethod",
          "type": "string"
        },
        {
          "indexed": false,
          "internalType": "string",
          "name": "paymentReference",
          "type": "string"
        },
        {
          "indexed": false,
          "internalType": "uint256",
          "name": "timestamp",
          "type": "uint256"
        }
      ],
      "name": "PaymentProcessed",
      "type": "event"
    },
    {
      "anonymous": false,
      "inputs": [
        {
          "indexed": true,
          "internalType": "bytes32",
          "name": "transactionId",
          "type": "bytes32"
        },
        {
          "indexed": true,
          "internalType": "address",
          "name": "farmerId",
          "type": "address"
        },
        {
          "indexed": true,
          "internalType": "address",
          "name": "cropId",
          "type": "address"
        },
        {
          "indexed": false,
          "internalType": "uint256",
          "name": "quantity",
          "type": "uint256"
        },
        {
          "indexed": false,
          "internalType": "uint256",
          "name": "pricePerUnit",
          "type": "uint256"
        },
        {
          "indexed": false,
          "internalType": "uint256",
          "name": "totalAmount",
          "type": "uint256"
        },
        {
          "indexed": false,
          "internalType": "address",
          "name": "govtEmployeeId",
          "type": "address"
        },
        {
          "indexed": false,
          "internalType": "string",
          "name": "verificationHash",
          "type": "string"
        },
        {
          "indexed": false,
          "internalType": "uint256",
          "name": "timestamp",
          "type": "uint256"
        }
      ],
      "name": "TransactionRecorded",
      "type": "event"
    },
    {
      "anonymous": false,
      "inputs": [
        {
          "indexed": true,
          "internalType": "address",
          "name": "cropId",
          "type": "address"
        },
        {
          "indexed": false,
          "internalType": "string",
          "name": "qualityGrade",
          "type": "string"
        },
        {
          "indexed": false,
          "internalType": "uint256",
          "name": "qualityScore",
          "type": "uint256"
        },
        {
          "indexed": false,
          "internalType": "string",
          "name": "verificationHash",
          "type": "string"
        },
        {
          "indexed": false,
          "internalType": "uint256",
          "name": "timestamp",
          "type": "uint256"
        }
      ],
      "name": "VerificationUpdated",
      "type": "event"
    },
    {
      "stateMutability": "payable",
      "type": "fallback"
    },
    {
      "inputs": [
        {
          "internalType": "address",
          "name": "",
          "type": "address"
        }
      ],
      "name": "cropVerifications",
      "outputs": [
        {
          "internalType": "address",
          "name": "cropId",
          "type": "address"
        },
        {
          "internalType": "string",
          "name": "qualityGrade",
          "type": "string"
        },
        {
          "internalType": "uint256",
          "name": "qualityScore",
          "type": "uint256"
        },
        {
          "internalType": "string",
          "name": "verificationHash",
          "type": "string"
        },
        {
          "internalType": "address",
          "name": "verifiedBy",
          "type": "address"
        },
        {
          "internalType": "uint256",
          "name": "timestamp",
          "type": "uint256"
        },
        {
          "internalType": "bool",
          "name": "isVerified",
          "type": "bool"
        }
      ],
      "stateMutability": "view",
      "type": "function"
    },
    {
      "inputs": [
        {
          "internalType": "address",
          "name": "",
          "type": "address"
        }
      ],
      "name": "farmerEarnings",
      "outputs": [
        {
          "internalType": "uint256",
          "name": "",
          "type": "uint256"
        }
      ],
      "stateMutability": "view",
      "type": "function"
    },
    {
      "inputs": [
        {
          "internalType": "address",
          "name": "",
          "type": "address"
        }
      ],
      "name": "farmerTransactionCount",
      "outputs": [
        {
          "internalType": "uint256",
          "name": "",
          "type": "uint256"
        }
      ],
      "stateMutability": "view",
      "type": "function"
    },
    {
      "inputs": [],
      "name": "getContractStats",
      "outputs": [
        {
          "internalType": "uint256",
          "name": "",
          "type": "uint256"
        },
        {
          "internalType": "uint256",
          "name": "",
          "type": "uint256"
        }
      ],
      "stateMutability": "view",
      "type": "function"
    },
    {
      "inputs": [
        {
          "internalType": "address",
          "name": "_cropId",
          "type": "address"
        }
      ],
      "name": "getCropVerification",
      "outputs": [
        {
          "components": [
            {
              "internalType": "address",
              "name": "cropId",
              "type": "address"
            },
            {
              "internalType": "string",
              "name": "qualityGrade",
              "type": "string"
            },
            {
              "internalType": "uint256",
              "name": "qualityScore",
              "type": "uint256"
            },
            {
              "internalType": "string",
              "name": "verificationHash",
              "type": "string"
            },
            {
              "internalType": "address",
              "name": "verifiedBy",
              "type": "address"
            },
            {
              "internalType": "uint256",
              "name": "timestamp",
              "type": "uint256"
            },
            {
              "internalType": "bool",
              "name": "isVerified",
              "type": "bool"
            }
          ],
          "internalType": "struct FarmerGovt.CropVerification",
          "name": "",
          "type": "tuple"
        }
      ],
      "stateMutability": "view",
      "type": "function"
    },
    {
      "inputs": [
        {
          "internalType": "address",
          "name": "_farmerId",
          "type": "address"
        }
      ],
      "name": "getFarmerStats",
      "outputs": [
        {
          "internalType": "uint256",
          "name": "",
          "type": "uint256"
        },
        {
          "internalType": "uint256",
          "name": "",
          "type": "uint256"
        }
      ],
      "stateMutability": "view",
      "type": "function"
    },
    {
      "inputs": [
        {
          "internalType": "bytes32",
          "name": "_transactionId",
          "type": "bytes32"
        }
      ],
      "name": "getTransaction",
      "outputs": [
        {
          "components": [
            {
              "internalType": "bytes32",
              "name": "transactionId",
              "type": "bytes32"
            },
            {
              "internalType": "address",
              "name": "farmerId",
              "type": "address"
            },
            {
              "internalType": "address",
              "name": "cropId",
              "type": "address"
            },
            {
              "internalType": "uint256",
              "name": "quantity",
              "type": "uint256"
            },
            {
              "internalType": "uint256",
              "name": "pricePerUnit",
              "type": "uint256"
            },
            {
              "internalType": "uint256",
              "name": "totalAmount",
              "type": "uint256"
            },
            {
              "internalType": "address",
              "name": "govtEmployeeId",
              "type": "address"
            },
            {
              "internalType": "string",
              "name": "verificationHash",
              "type": "string"
            },
            {
              "internalType": "uint256",
              "name": "timestamp",
              "type": "uint256"
            },
            {
              "internalType": "bool",
              "name": "isPaid",
              "type": "bool"
            },
            {
              "internalType": "string",
              "name": "paymentReference",
              "type": "string"
            }
          ],
          "internalType": "struct FarmerGovt.Transaction",
          "name": "",
          "type": "tuple"
        }
      ],
      "stateMutability": "view",
      "type": "function"
    },
    {
      "inputs": [],
      "name": "owner",
      "outputs": [
        {
          "internalType": "address",
          "name": "",
          "type": "address"
        }
      ],
      "stateMutability": "view",
      "type": "function"
    },
    {
      "inputs": [],
      "name": "pause",
      "outputs": [],
      "stateMutability": "nonpayable",
      "type": "function"
    },
    {
      "inputs": [],
      "name": "platformFeePercentage",
      "outputs": [
        {
          "internalType": "uint256",
          "name": "",
          "type": "uint256"
        }
      ],
      "stateMutability": "view",
      "type": "function"
    },
    {
      "inputs": [
        {
          "internalType": "bytes32",
          "name": "_transactionId",
          "type": "bytes32"
        },
        {
          "internalType": "string",
          "name": "_paymentMethod",
          "type": "string"
        },
        {
          "internalType": "string",
          "name": "_paymentReference",
          "type": "string"
        }
      ],
      "name": "processPayment",
      "outputs": [],
      "stateMutability": "nonpayable",
      "type": "function"
    },
    {
      "inputs": [
        {
          "internalType": "address",
          "name": "_farmerId",
          "type": "address"
        },
        {
          "internalType": "address",
          "name": "_cropId",
          "type": "address"
        },
        {
          "internalType": "uint256",
          "name": "_quantity",
          "type": "uint256"
        },
        {
          "internalType": "uint256",
          "name": "_pricePerUnit",
          "type": "uint256"
        },
        {
          "internalType": "uint256",
          "name": "_totalAmount",
          "type": "uint256"
        },
        {
          "internalType": "address",
          "name": "_govtEmployeeId",
          "type": "address"
        },
        {
          "internalType": "string",
          "name": "_verificationHash",
          "type": "string"
        }
      ],
      "name": "recordTransaction",
      "outputs": [],
      "stateMutability": "nonpayable",
      "type": "function"
    },
    {
      "inputs": [],
      "name": "totalTransactions",
      "outputs": [
        {
          "internalType": "uint256",
          "name": "",
          "type": "uint256"
        }
      ],
      "stateMutability": "view",
      "type": "function"
    },
    {
      "inputs": [],
      "name": "totalVolume",
      "outputs": [
        {
          "internalType": "uint256",
          "name": "",
          "type": "uint256"
        }
      ],
      "stateMutability": "view",
      "type": "function"
    },
    {
      "inputs": [
        {
          "internalType": "bytes32",
          "name": "",
          "type": "bytes32"
        }
      ],
      "name": "transactions",
      "outputs": [
        {
          "internalType": "bytes32",
          "name": "transactionId",
          "type": "bytes32"
        },
        {
          "internalType": "address",
          "name": "farmerId",
          "type": "address"
        },
        {
          "internalType": "address",
          "name": "cropId",
          "type": "address"
        },
        {
          "internalType": "uint256",
          "name": "quantity",
          "type": "uint256"
        },
        {
          "internalType": "uint256",
          "name": "pricePerUnit",
          "type": "uint256"
        },
        {
          "internalType": "uint256",
          "name": "totalAmount",
          "type": "uint256"
        },
        {
          "internalType": "address",
          "name": "govtEmployeeId",
          "type": "address"
        },
        {
          "internalType": "string",
          "name": "verificationHash",
          "type": "string"
        },
        {
          "internalType": "uint256",
          "name": "timestamp",
          "type": "uint256"
        },
        {
          "internalType": "bool",
          "name": "isPaid",
          "type": "bool"
        },
        {
          "internalType": "string",
          "name": "paymentReference",
          "type": "string"
        }
      ],
      "stateMutability": "view",
      "type": "function"
    },
    {
      "inputs": [
        {
          "internalType": "address",
          "name": "_newOwner",
          "type": "address"
        }
      ],
      "name": "transferOwnership",
      "outputs": [],
      "stateMutability": "nonpayable",
      "type": "function"
    },
    {
      "inputs": [],
      "name": "treasury",
      "outputs": [
        {
          "internalType": "address",
          "name": "",
          "type": "address"
        }
      ],
      "stateMutability": "view",
      "type": "function"
    },
    {
      "inputs": [
        {
          "internalType": "address",
          "name": "_cropId",
          "type": "address"
        },
        {
          "internalType": "string",
          "name": "_qualityGrade",
          "type": "string"
        },
        {
          "internalType": "uint256",
          "name": "_qualityScore",
          "type": "uint256"
        },
        {
          "internalType": "string",
          "name": "_verificationHash",
          "type": "string"
        }
      ],
      "name": "updateCropVerification",
      "outputs": [],
      "stateMutability": "nonpayable",
      "type": "function"
    },
    {
      "inputs": [
        {
          "internalType": "uint256",
          "name": "_newFeePercentage",
          "type": "uint256"
        }
      ],
      "name": "updatePlatformFee",
      "outputs": [],
      "stateMutability": "nonpayable",
      "type": "function"
    },
    {
      "inputs": [
        {
          "internalType": "address",
          "name": "_newTreasury",
          "type": "address"
        }
      ],
      "name": "updateTreasury",
      "outputs": [],
      "stateMutability": "nonpayable",
      "type": "function"
    },
    {
      "inputs": [
        {
          "internalType": "uint256",
          "name": "_amount",
          "type": "uint256"
        }
      ],
      "name": "withdrawToTreasury",
      "outputs": [],
      "stateMutability": "nonpayable",
      "type": "function"
    },
    {
      "stateMutability": "payable",
      "type": "receive"
    }
  ],
  "bytecode": "0x608060405234801561001057600080fd5b5060405161203b38038061203b83398101604081905261002f91610066565b60048054336001600160a01b031991821617909155600580549091166001600160a01b0393909316929092179091556006556100a0565b6000806040838503121561007957600080fd5b82516001600160a01b038116811461009057600080fd5b6020939093015192949293505050565b611f8c806100af6000396000f3fe6080604052600436106101225760003560e01c8063aa0b5988116100a5578063be4438851161006c578063be4438851461035f578063c10967fc146103b7578063cdd78cfc146103e4578063dfe6b5d6146103fa578063f2fde38b14610412578063fe3af39e1461043257005b8063aa0b5988146102b6578063abae70c5146102d6578063b04c062c146102f6578063b9a6003814610316578063bd9278121461032c57005b80637f51bb1f116100e95780637f51bb1f146102145780638456cb59146102345780638da5cb5b14610249578063942b1061146102695780639979bdcc1461028957005b80634aae13ca1461012b5780634bccfec1146101615780635f81a57c1461018157806361d027b3146101a5578063642f2eaf146101dd57005b3661012957005b005b34801561013757600080fd5b5061014b610146366004611755565b61045f565b60405161015891906117b4565b60405180910390f35b34801561016d57600080fd5b5061012961017c366004611933565b6106ee565b34801561018d57600080fd5b5061019760085481565b604051908152602001610158565b3480156101b157600080fd5b506005546101c5906001600160a01b031681565b6040516001600160a01b039091168152602001610158565b3480156101e957600080fd5b506101fd6101f8366004611755565b6108de565b6040516101589b9a999897969594939291906119a0565b34801561022057600080fd5b5061012961022f366004611a43565b610a5d565b34801561024057600080fd5b50610129610aff565b34801561025557600080fd5b506004546101c5906001600160a01b031681565b34801561027557600080fd5b50610129610284366004611a65565b610ba7565b34801561029557600080fd5b506102a96102a4366004611a43565b610fdc565b6040516101589190611af1565b3480156102c257600080fd5b506101296102d1366004611755565b61122a565b3480156102e257600080fd5b506101296102f1366004611755565b6112ab565b34801561030257600080fd5b50610129610311366004611b78565b6113bb565b34801561032257600080fd5b5061019760075481565b34801561033857600080fd5b5061034c610347366004611a43565b61154e565b6040516101589796959493929190611bf6565b34801561036b57600080fd5b506103a261037a366004611a43565b6001600160a01b03166000908152600260209081526040808320546003909252909120549091565b60408051928352602083019190915201610158565b3480156103c357600080fd5b506101976103d2366004611a43565b60036020526000908152604090205481565b3480156103f057600080fd5b5061019760065481565b34801561040657600080fd5b506007546008546103a2565b34801561041e57600080fd5b5061012961042d366004611a43565b6116b3565b34801561043e57600080fd5b5061019761044d366004611a43565b60026020526000908152604090205481565b6104dc6040518061016001604052806000801916815260200160006001600160a01b0316815260200160006001600160a01b0316815260200160008152602001600081526020016000815260200160006001600160a01b031681526020016060815260200160008152602001600015158152602001606081525090565b6000828152602081905260409020546105345760405162461bcd60e51b8152602060048201526015602482015274151c985b9cd858dd1a5bdb881b9bdd08199bdd5b99605a1b60448201526064015b60405180910390fd5b600082815260208181526040918290208251610160810184528154815260018201546001600160a01b039081169382019390935260028201548316938101939093526003810154606084015260048101546080840152600581015460a0840152600681015490911660c083015260078101805460e0840191906105b690611c53565b80601f01602080910402602001604051908101604052809291908181526020018280546105e290611c53565b801561062f5780601f106106045761010080835404028352916020019161062f565b820191906000526020600020905b81548152906001019060200180831161061257829003601f168201915b505050918352505060088201546020820152600982015460ff1615156040820152600a8201805460609092019161066590611c53565b80601f016020809104026020016040519081016040528092919081815260200182805461069190611c53565b80156106de5780601f106106b3576101008083540402835291602001916106de565b820191906000526020600020905b8154815290600101906020018083116106c157829003601f168201915b5050505050815250509050919050565b3361070b5760405162461bcd60e51b815260040161052b90611c8d565b60008381526020819052604090205461075e5760405162461bcd60e51b8152602060048201526015602482015274151c985b9cd858dd1a5bdb881b9bdd08199bdd5b99605a1b604482015260640161052b565b60008381526020819052604090206009015460ff16156107c05760405162461bcd60e51b815260206004820152601960248201527f5061796d656e7420616c72656164792070726f63657373656400000000000000604482015260640161052b565b60008381526020819052604081206006546005820154919291612710916107e691611cda565b6107f09190611cf7565b905060008183600501546108049190611d19565b60018401546001600160a01b0316600090815260026020526040812080549293508392909190610835908490611d2c565b909155505060018301546001600160a01b0316600090815260036020526040812080549161086283611d3f565b909155505060098301805460ff19166001179055600a83016108848582611da7565b5060018301546040516001600160a01b039091169087907f866477f4a33168f9027174ddf8affa839481136bbb9fc66419f4c8165f8f45de906108ce9085908a908a904290611e67565b60405180910390a3505050505050565b6000602081905290815260409020805460018201546002830154600384015460048501546005860154600687015460078801805497986001600160a01b039788169896881697959694959394939092169261093890611c53565b80601f016020809104026020016040519081016040528092919081815260200182805461096490611c53565b80156109b15780601f10610986576101008083540402835291602001916109b1565b820191906000526020600020905b81548152906001019060200180831161099457829003601f168201915b5050505060088301546009840154600a850180549495929460ff9092169350906109da90611c53565b80601f0160208091040260200160405190810160405280929190818152602001828054610a0690611c53565b8015610a535780601f10610a2857610100808354040283529160200191610a53565b820191906000526020600020905b815481529060010190602001808311610a3657829003601f168201915b505050505090508b565b6004546001600160a01b03163314610a875760405162461bcd60e51b815260040161052b90611ea4565b6001600160a01b038116610add5760405162461bcd60e51b815260206004820152601860248201527f496e76616c696420747265617375727920616464726573730000000000000000604482015260640161052b565b600580546001600160a01b0319166001600160a01b0392909216919091179055565b6004546001600160a01b03163314610b295760405162461bcd60e51b815260040161052b90611ea4565b604080516000808252602082018190529181018290526060810182905260c060808201819052600f908201526e10d3d395149050d517d4105554d151608a1b60e08201524260a0820152819081907f9cbe83f3884db284383dfc24cd9b82862e54dea82d2a9208f50daee33c029c6f906101000160405180910390a4565b33610bc45760405162461bcd60e51b815260040161052b90611c8d565b6001600160a01b038716610c135760405162461bcd60e51b8152602060048201526016602482015275496e76616c6964206661726d6572206164647265737360501b604482015260640161052b565b6001600160a01b038616610c605760405162461bcd60e51b8152602060048201526014602482015273496e76616c69642063726f70206164647265737360601b604482015260640161052b565b60008511610cb05760405162461bcd60e51b815260206004820152601f60248201527f5175616e74697479206d7573742062652067726561746572207468616e203000604482015260640161052b565b60008411610d0e5760405162461bcd60e51b815260206004820152602560248201527f50726963652070657220756e6974206d75737420626520677265617465722074604482015264068616e20360dc1b606482015260840161052b565b60008311610d6a5760405162461bcd60e51b815260206004820152602360248201527f546f74616c20616d6f756e74206d75737420626520677265617465722074686160448201526206e20360ec1b606482015260840161052b565b6040516bffffffffffffffffffffffff19606089811b8216602084015288811b82166034840152604883018890526068830187905242608884015233901b1660a882015260009060bc0160408051601f19818403018152918152815160209283012060008181529283905291205490915015610e285760405162461bcd60e51b815260206004820152601a60248201527f5472616e73616374696f6e20616c726561647920657869737473000000000000604482015260640161052b565b60408051610160810182528281526001600160a01b03808b1660208084019182528b8316848601908152606085018c8152608086018c815260a087018c81528b871660c0890190815260e089018c8152426101008b015260006101208b018190528b518089018d528181526101408c01528c815296879052999095208851815595516001870180549189166001600160a01b03199283161790559351600287018054918916918616919091179055915160038601555160048501555160058401559051600683018054919094169116179091559151909182916007820190610f109082611da7565b50610100820151600882015561012082015160098201805460ff1916911515919091179055610140820151600a820190610f4a9082611da7565b50506007805491506000610f5d83611d3f565b91905055508460086000828254610f749190611d2c565b92505081905550876001600160a01b0316896001600160a01b0316837f9cbe83f3884db284383dfc24cd9b82862e54dea82d2a9208f50daee33c029c6f8a8a8a8a8a42604051610fc996959493929190611ee5565b60405180910390a4505050505050505050565b6110306040518060e0016040528060006001600160a01b0316815260200160608152602001600081526020016060815260200160006001600160a01b03168152602001600081526020016000151581525090565b6001600160a01b03828116600090815260016020526040902054166110975760405162461bcd60e51b815260206004820152601b60248201527f43726f7020766572696669636174696f6e206e6f7420666f756e640000000000604482015260640161052b565b6001600160a01b03808316600090815260016020818152604092839020835160e08101909452805490941683529083018054929392918401916110d990611c53565b80601f016020809104026020016040519081016040528092919081815260200182805461110590611c53565b80156111525780601f1061112757610100808354040283529160200191611152565b820191906000526020600020905b81548152906001019060200180831161113557829003601f168201915b505050505081526020016002820154815260200160038201805461117590611c53565b80601f01602080910402602001604051908101604052809291908181526020018280546111a190611c53565b80156111ee5780601f106111c3576101008083540402835291602001916111ee565b820191906000526020600020905b8154815290600101906020018083116111d157829003601f168201915b505050918352505060048201546001600160a01b031660208201526005820154604082015260069091015460ff16151560609091015292915050565b6004546001600160a01b031633146112545760405162461bcd60e51b815260040161052b90611ea4565b6103e88111156112a65760405162461bcd60e51b815260206004820181905260248201527f4665652070657263656e746167652063616e6e6f742065786365656420313025604482015260640161052b565b600655565b6004546001600160a01b031633146112d55760405162461bcd60e51b815260040161052b90611ea4565b478111156113255760405162461bcd60e51b815260206004820152601d60248201527f496e73756666696369656e7420636f6e74726163742062616c616e6365000000604482015260640161052b565b6005546001600160a01b031661137d5760405162461bcd60e51b815260206004820152601860248201527f54726561737572792061646472657373206e6f74207365740000000000000000604482015260640161052b565b6005546040516001600160a01b039091169082156108fc029083906000818181858888f193505050501580156113b7573d6000803e3d6000fd5b5050565b336113d85760405162461bcd60e51b815260040161052b90611c8d565b6001600160a01b0384166114255760405162461bcd60e51b8152602060048201526014602482015273496e76616c69642063726f70206164647265737360601b604482015260640161052b565b60648211156114865760405162461bcd60e51b815260206004820152602760248201527f5175616c6974792073636f7265206d757374206265206265747765656e2030206044820152660616e64203130360cc1b606482015260840161052b565b6001600160a01b038416600081815260016020819052604090912080546001600160a01b031916909217825581016114be8582611da7565b5060028101839055600381016114d48382611da7565b506004810180546001600160a01b03191633179055426005820181905560068201805460ff191660011790556040516001600160a01b038716917f5a71ade29a280f8ffd1d7c001bcccc6ac22a9a61046abef2bf9498e20e2d74c89161153f91889188918891611f2b565b60405180910390a25050505050565b6001602081905260009182526040909120805491810180546001600160a01b039093169261157b90611c53565b80601f01602080910402602001604051908101604052809291908181526020018280546115a790611c53565b80156115f45780601f106115c9576101008083540402835291602001916115f4565b820191906000526020600020905b8154815290600101906020018083116115d757829003601f168201915b50505050509080600201549080600301805461160f90611c53565b80601f016020809104026020016040519081016040528092919081815260200182805461163b90611c53565b80156116885780601f1061165d57610100808354040283529160200191611688565b820191906000526020600020905b81548152906001019060200180831161166b57829003601f168201915b505050506004830154600584015460069094015492936001600160a01b039091169290915060ff1687565b6004546001600160a01b031633146116dd5760405162461bcd60e51b815260040161052b90611ea4565b6001600160a01b0381166117335760405162461bcd60e51b815260206004820152601960248201527f496e76616c6964206e6577206f776e6572206164647265737300000000000000604482015260640161052b565b600480546001600160a01b0319166001600160a01b0392909216919091179055565b60006020828403121561176757600080fd5b5035919050565b6000815180845260005b8181101561179457602081850181015186830182015201611778565b506000602082860101526020601f19601f83011685010191505092915050565b6020815281516020820152600060208301516117db60408401826001600160a01b03169052565b5060408301516001600160a01b03811660608401525060608301516080830152608083015160a083015260a083015160c083015260c083015161182960e08401826001600160a01b03169052565b5060e0830151610160610100818186015261184861018086018461176e565b908601516101208681019190915286015190925061014061186c8187018315159052565b860151858403601f1901838701529050611886838261176e565b9695505050505050565b634e487b7160e01b600052604160045260246000fd5b600082601f8301126118b757600080fd5b813567ffffffffffffffff808211156118d2576118d2611890565b604051601f8301601f19908116603f011681019082821181831017156118fa576118fa611890565b8160405283815286602085880101111561191357600080fd5b836020870160208301376000602085830101528094505050505092915050565b60008060006060848603121561194857600080fd5b83359250602084013567ffffffffffffffff8082111561196757600080fd5b611973878388016118a6565b9350604086013591508082111561198957600080fd5b50611996868287016118a6565b9150509250925092565b8b81526001600160a01b038b811660208301528a81166040830152606082018a90526080820189905260a08201889052861660c082015261016060e082018190526000906119f08382018861176e565b905085610100840152841515610120840152828103610140840152611a15818561176e565b9e9d5050505050505050505050505050565b80356001600160a01b0381168114611a3e57600080fd5b919050565b600060208284031215611a5557600080fd5b611a5e82611a27565b9392505050565b600080600080600080600060e0888a031215611a8057600080fd5b611a8988611a27565b9650611a9760208901611a27565b9550604088013594506060880135935060808801359250611aba60a08901611a27565b915060c088013567ffffffffffffffff811115611ad657600080fd5b611ae28a828b016118a6565b91505092959891949750929550565b60208152600060018060a01b03808451166020840152602084015160e06040850152611b2161010085018261176e565b9050604085015160608501526060850151601f19858303016080860152611b48828261176e565b9150508160808601511660a085015260a085015160c085015260c0850151151560e0850152809250505092915050565b60008060008060808587031215611b8e57600080fd5b611b9785611a27565b9350602085013567ffffffffffffffff80821115611bb457600080fd5b611bc0888389016118a6565b9450604087013593506060870135915080821115611bdd57600080fd5b50611bea878288016118a6565b91505092959194509250565b600060018060a01b03808a16835260e06020840152611c1860e084018a61176e565b8860408501528381036060850152611c30818961176e565b969091166080840152505060a0810192909252151560c090910152949350505050565b600181811c90821680611c6757607f821691505b602082108103611c8757634e487b7160e01b600052602260045260246000fd5b50919050565b6020808252601b908201527f496e76616c696420676f7665726e6d656e7420656d706c6f7965650000000000604082015260600190565b634e487b7160e01b600052601160045260246000fd5b8082028115828204841417611cf157611cf1611cc4565b92915050565b600082611d1457634e487b7160e01b600052601260045260246000fd5b500490565b81810381811115611cf157611cf1611cc4565b80820180821115611cf157611cf1611cc4565b600060018201611d5157611d51611cc4565b5060010190565b601f821115611da257600081815260208120601f850160051c81016020861015611d7f5750805b601f850160051c820191505b81811015611d9e57828155600101611d8b565b5050505b505050565b815167ffffffffffffffff811115611dc157611dc1611890565b611dd581611dcf8454611c53565b84611d58565b602080601f831160018114611e0a5760008415611df25750858301515b600019600386901b1c1916600185901b178555611d9e565b600085815260208120601f198616915b82811015611e3957888601518255948401946001909101908401611e1a565b5085821015611e575787850151600019600388901b60f8161c191681555b5050505050600190811b01905550565b848152608060208201526000611e80608083018661176e565b8281036040840152611e92818661176e565b91505082606083015295945050505050565b60208082526021908201527f4f6e6c79206f776e65722063616e2063616c6c20746869732066756e6374696f6040820152603760f91b606082015260800190565b86815285602082015284604082015260018060a01b038416606082015260c060808201526000611f1860c083018561176e565b90508260a0830152979650505050505050565b608081526000611f3e608083018761176e565b8560208401528281036040840152611e92818661176e56fea2646970667358221220cf68e1b7add5283aa43b55773e8e94557ecaddca594b11a30bf88c13cf5afcd064736f6c63430008140033",
  "linkReferences": {},
  "deployedLinkReferences": {}
}