{
  "_format": "hh-sol-artifact-1",
  "contractName": "GovtCustomer",
  "sourceName": "contracts/GovtCustomer.sol",
  "abi": [
    {
      "inputs": [
        {
          "internalType": "address",
          "name": "_treasury",
          "type": "address"
        },
        {
          "internalType": "uint256",
          "name": "_platformFeePercentage",
          "type": "uint256"
        },
        {
          "internalType": "uint256",
          "name": "_loyaltyPointsRate",
          "type": "uint256"
        }
      ],
      "stateMutability": "nonpayable",
      "type": "constructor"
    },
    {
      "anonymous": false,
      "inputs": [
        {
          "indexed": true,
          "internalType": "address",
          "name": "customerId",
          "type": "address"
        },
        {
          "indexed": false,
          "internalType": "string",
          "name": "customerCode",
          "type": "string"
        },
        {
          "indexed": false,
          "internalType": "string",
          "name": "name",
          "type": "string"
        },
        {
          "indexed": false,
          "internalType": "uint256",
          "name": "timestamp",
          "type": "uint256"
        }
      ],
      "name": "CustomerRegistered",
      "type": "event"
    },
    {
      "anonymous": false,
      "inputs": [
        {
          "indexed": true,
          "internalType": "bytes32",
          "name": "saleId",
          "type": "bytes32"
        },
        {
          "indexed": true,
          "internalType": "address",
          "name": "customerId",
          "type": "address"
        },
        {
          "indexed": false,
          "internalType": "uint256",
          "name": "amount",
          "type": "uint256"
        },
        {
          "indexed": false,
          "internalType": "string",
          "name": "paymentMethod",
          "type": "string"
        },
        {
          "indexed": false,
          "internalType": "string",
          "name": "paymentReference",
          "type": "string"
        },
        {
          "indexed": false,
          "internalType": "uint256",
          "name": "timestamp",
          "type": "uint256"
        }
      ],
      "name": "PaymentReceived",
      "type": "event"
    },
    {
      "anonymous": false,
      "inputs": [
        {
          "indexed": true,
          "internalType": "bytes32",
          "name": "saleId",
          "type": "bytes32"
        },
        {
          "indexed": true,
          "internalType": "address",
          "name": "customerId",
          "type": "address"
        },
        {
          "indexed": true,
          "internalType": "address",
          "name": "cropId",
          "type": "address"
        },
        {
          "indexed": false,
          "internalType": "uint256",
          "name": "quantity",
          "type": "uint256"
        },
        {
          "indexed": false,
          "internalType": "uint256",
          "name": "pricePerUnit",
          "type": "uint256"
        },
        {
          "indexed": false,
          "internalType": "uint256",
          "name": "totalAmount",
          "type": "uint256"
        },
        {
          "indexed": false,
          "internalType": "address",
          "name": "govtEmployeeId",
          "type": "address"
        },
        {
          "indexed": false,
          "internalType": "string",
          "name": "paymentHash",
          "type": "string"
        },
        {
          "indexed": false,
          "internalType": "uint256",
          "name": "timestamp",
          "type": "uint256"
        }
      ],
      "name": "SaleRecorded",
      "type": "event"
    },
    {
      "stateMutability": "payable",
      "type": "fallback"
    },
    {
      "inputs": [
        {
          "internalType": "address",
          "name": "",
          "type": "address"
        }
      ],
      "name": "customerPurchaseCount",
      "outputs": [
        {
          "internalType": "uint256",
          "name": "",
          "type": "uint256"
        }
      ],
      "stateMutability": "view",
      "type": "function"
    },
    {
      "inputs": [
        {
          "internalType": "address",
          "name": "",
          "type": "address"
        }
      ],
      "name": "customerSpending",
      "outputs": [
        {
          "internalType": "uint256",
          "name": "",
          "type": "uint256"
        }
      ],
      "stateMutability": "view",
      "type": "function"
    },
    {
      "inputs": [
        {
          "internalType": "address",
          "name": "",
          "type": "address"
        }
      ],
      "name": "customers",
      "outputs": [
        {
          "internalType": "address",
          "name": "customerId",
          "type": "address"
        },
        {
          "internalType": "string",
          "name": "customerCode",
          "type": "string"
        },
        {
          "internalType": "string",
          "name": "name",
          "type": "string"
        },
        {
          "internalType": "string",
          "name": "email",
          "type": "string"
        },
        {
          "internalType": "string",
          "name": "phone",
          "type": "string"
        },
        {
          "internalType": "address",
          "name": "walletAddress",
          "type": "address"
        },
        {
          "internalType": "uint256",
          "name": "totalPurchases",
          "type": "uint256"
        },
        {
          "internalType": "uint256",
          "name": "totalSpent",
          "type": "uint256"
        },
        {
          "internalType": "uint256",
          "name": "loyaltyPoints",
          "type": "uint256"
        },
        {
          "internalType": "bool",
          "name": "isActive",
          "type": "bool"
        },
        {
          "internalType": "uint256",
          "name": "registrationTimestamp",
          "type": "uint256"
        }
      ],
      "stateMutability": "view",
      "type": "function"
    },
    {
      "inputs": [],
      "name": "getContractStats",
      "outputs": [
        {
          "internalType": "uint256",
          "name": "",
          "type": "uint256"
        },
        {
          "internalType": "uint256",
          "name": "",
          "type": "uint256"
        }
      ],
      "stateMutability": "view",
      "type": "function"
    },
    {
      "inputs": [
        {
          "internalType": "address",
          "name": "_customerId",
          "type": "address"
        }
      ],
      "name": "getCustomer",
      "outputs": [
        {
          "components": [
            {
              "internalType": "address",
              "name": "customerId",
              "type": "address"
            },
            {
              "internalType": "string",
              "name": "customerCode",
              "type": "string"
            },
            {
              "internalType": "string",
              "name": "name",
              "type": "string"
            },
            {
              "internalType": "string",
              "name": "email",
              "type": "string"
            },
            {
              "internalType": "string",
              "name": "phone",
              "type": "string"
            },
            {
              "internalType": "address",
              "name": "walletAddress",
              "type": "address"
            },
            {
              "internalType": "uint256",
              "name": "totalPurchases",
              "type": "uint256"
            },
            {
              "internalType": "uint256",
              "name": "totalSpent",
              "type": "uint256"
            },
            {
              "internalType": "uint256",
              "name": "loyaltyPoints",
              "type": "uint256"
            },
            {
              "internalType": "bool",
              "name": "isActive",
              "type": "bool"
            },
            {
              "internalType": "uint256",
              "name": "registrationTimestamp",
              "type": "uint256"
            }
          ],
          "internalType": "struct GovtCustomer.Customer",
          "name": "",
          "type": "tuple"
        }
      ],
      "stateMutability": "view",
      "type": "function"
    },
    {
      "inputs": [
        {
          "internalType": "address",
          "name": "_customerId",
          "type": "address"
        }
      ],
      "name": "getCustomerStats",
      "outputs": [
        {
          "internalType": "uint256",
          "name": "",
          "type": "uint256"
        },
        {
          "internalType": "uint256",
          "name": "",
          "type": "uint256"
        },
        {
          "internalType": "uint256",
          "name": "",
          "type": "uint256"
        }
      ],
      "stateMutability": "view",
      "type": "function"
    },
    {
      "inputs": [
        {
          "internalType": "bytes32",
          "name": "_saleId",
          "type": "bytes32"
        }
      ],
      "name": "getSale",
      "outputs": [
        {
          "components": [
            {
              "internalType": "bytes32",
              "name": "saleId",
              "type": "bytes32"
            },
            {
              "internalType": "address",
              "name": "customerId",
              "type": "address"
            },
            {
              "internalType": "address",
              "name": "cropId",
              "type": "address"
            },
            {
              "internalType": "uint256",
              "name": "quantity",
              "type": "uint256"
            },
            {
              "internalType": "uint256",
              "name": "pricePerUnit",
              "type": "uint256"
            },
            {
              "internalType": "uint256",
              "name": "totalAmount",
              "type": "uint256"
            },
            {
              "internalType": "address",
              "name": "govtEmployeeId",
              "type": "address"
            },
            {
              "internalType": "string",
              "name": "paymentHash",
              "type": "string"
            },
            {
              "internalType": "uint256",
              "name": "timestamp",
              "type": "uint256"
            },
            {
              "internalType": "bool",
              "name": "isPaid",
              "type": "bool"
            },
            {
              "internalType": "string",
              "name": "paymentReference",
              "type": "string"
            },
            {
              "internalType": "string",
              "name": "deliveryAddress",
              "type": "string"
            },
            {
              "internalType": "string",
              "name": "deliveryStatus",
              "type": "string"
            }
          ],
          "internalType": "struct GovtCustomer.Sale",
          "name": "",
          "type": "tuple"
        }
      ],
      "stateMutability": "view",
      "type": "function"
    },
    {
      "inputs": [],
      "name": "loyaltyPointsRate",
      "outputs": [
        {
          "internalType": "uint256",
          "name": "",
          "type": "uint256"
        }
      ],
      "stateMutability": "view",
      "type": "function"
    },
    {
      "inputs": [],
      "name": "owner",
      "outputs": [
        {
          "internalType": "address",
          "name": "",
          "type": "address"
        }
      ],
      "stateMutability": "view",
      "type": "function"
    },
    {
      "inputs": [],
      "name": "platformFeePercentage",
      "outputs": [
        {
          "internalType": "uint256",
          "name": "",
          "type": "uint256"
        }
      ],
      "stateMutability": "view",
      "type": "function"
    },
    {
      "inputs": [
        {
          "internalType": "bytes32",
          "name": "_saleId",
          "type": "bytes32"
        },
        {
          "internalType": "string",
          "name": "_paymentMethod",
          "type": "string"
        },
        {
          "internalType": "string",
          "name": "_paymentReference",
          "type": "string"
        }
      ],
      "name": "processCustomerPayment",
      "outputs": [],
      "stateMutability": "nonpayable",
      "type": "function"
    },
    {
      "inputs": [
        {
          "internalType": "address",
          "name": "_customerId",
          "type": "address"
        },
        {
          "internalType": "address",
          "name": "_cropId",
          "type": "address"
        },
        {
          "internalType": "uint256",
          "name": "_quantity",
          "type": "uint256"
        },
        {
          "internalType": "uint256",
          "name": "_pricePerUnit",
          "type": "uint256"
        },
        {
          "internalType": "uint256",
          "name": "_totalAmount",
          "type": "uint256"
        },
        {
          "internalType": "address",
          "name": "_govtEmployeeId",
          "type": "address"
        },
        {
          "internalType": "string",
          "name": "_paymentHash",
          "type": "string"
        },
        {
          "internalType": "string",
          "name": "_deliveryAddress",
          "type": "string"
        }
      ],
      "name": "recordSale",
      "outputs": [],
      "stateMutability": "nonpayable",
      "type": "function"
    },
    {
      "inputs": [
        {
          "internalType": "address",
          "name": "_customerId",
          "type": "address"
        },
        {
          "internalType": "uint256",
          "name": "_points",
          "type": "uint256"
        },
        {
          "internalType": "uint256",
          "name": "_discountAmount",
          "type": "uint256"
        }
      ],
      "name": "redeemLoyaltyPoints",
      "outputs": [],
      "stateMutability": "nonpayable",
      "type": "function"
    },
    {
      "inputs": [
        {
          "internalType": "string",
          "name": "_customerCode",
          "type": "string"
        },
        {
          "internalType": "string",
          "name": "_name",
          "type": "string"
        },
        {
          "internalType": "string",
          "name": "_email",
          "type": "string"
        },
        {
          "internalType": "string",
          "name": "_phone",
          "type": "string"
        },
        {
          "internalType": "address",
          "name": "_walletAddress",
          "type": "address"
        }
      ],
      "name": "registerCustomer",
      "outputs": [],
      "stateMutability": "nonpayable",
      "type": "function"
    },
    {
      "inputs": [
        {
          "internalType": "bytes32",
          "name": "",
          "type": "bytes32"
        }
      ],
      "name": "sales",
      "outputs": [
        {
          "internalType": "bytes32",
          "name": "saleId",
          "type": "bytes32"
        },
        {
          "internalType": "address",
          "name": "customerId",
          "type": "address"
        },
        {
          "internalType": "address",
          "name": "cropId",
          "type": "address"
        },
        {
          "internalType": "uint256",
          "name": "quantity",
          "type": "uint256"
        },
        {
          "internalType": "uint256",
          "name": "pricePerUnit",
          "type": "uint256"
        },
        {
          "internalType": "uint256",
          "name": "totalAmount",
          "type": "uint256"
        },
        {
          "internalType": "address",
          "name": "govtEmployeeId",
          "type": "address"
        },
        {
          "internalType": "string",
          "name": "paymentHash",
          "type": "string"
        },
        {
          "internalType": "uint256",
          "name": "timestamp",
          "type": "uint256"
        },
        {
          "internalType": "bool",
          "name": "isPaid",
          "type": "bool"
        },
        {
          "internalType": "string",
          "name": "paymentReference",
          "type": "string"
        },
        {
          "internalType": "string",
          "name": "deliveryAddress",
          "type": "string"
        },
        {
          "internalType": "string",
          "name": "deliveryStatus",
          "type": "string"
        }
      ],
      "stateMutability": "view",
      "type": "function"
    },
    {
      "inputs": [],
      "name": "totalRevenue",
      "outputs": [
        {
          "internalType": "uint256",
          "name": "",
          "type": "uint256"
        }
      ],
      "stateMutability": "view",
      "type": "function"
    },
    {
      "inputs": [],
      "name": "totalSales",
      "outputs": [
        {
          "internalType": "uint256",
          "name": "",
          "type": "uint256"
        }
      ],
      "stateMutability": "view",
      "type": "function"
    },
    {
      "inputs": [
        {
          "internalType": "address",
          "name": "_newOwner",
          "type": "address"
        }
      ],
      "name": "transferOwnership",
      "outputs": [],
      "stateMutability": "nonpayable",
      "type": "function"
    },
    {
      "inputs": [],
      "name": "treasury",
      "outputs": [
        {
          "internalType": "address",
          "name": "",
          "type": "address"
        }
      ],
      "stateMutability": "view",
      "type": "function"
    },
    {
      "inputs": [
        {
          "internalType": "bytes32",
          "name": "_saleId",
          "type": "bytes32"
        },
        {
          "internalType": "string",
          "name": "_deliveryStatus",
          "type": "string"
        }
      ],
      "name": "updateDeliveryStatus",
      "outputs": [],
      "stateMutability": "nonpayable",
      "type": "function"
    },
    {
      "inputs": [
        {
          "internalType": "uint256",
          "name": "_newRate",
          "type": "uint256"
        }
      ],
      "name": "updateLoyaltyPointsRate",
      "outputs": [],
      "stateMutability": "nonpayable",
      "type": "function"
    },
    {
      "inputs": [
        {
          "internalType": "uint256",
          "name": "_newFeePercentage",
          "type": "uint256"
        }
      ],
      "name": "updatePlatformFee",
      "outputs": [],
      "stateMutability": "nonpayable",
      "type": "function"
    },
    {
      "inputs": [
        {
          "internalType": "address",
          "name": "_newTreasury",
          "type": "address"
        }
      ],
      "name": "updateTreasury",
      "outputs": [],
      "stateMutability": "nonpayable",
      "type": "function"
    },
    {
      "inputs": [
        {
          "internalType": "uint256",
          "name": "_amount",
          "type": "uint256"
        }
      ],
      "name": "withdrawToTreasury",
      "outputs": [],
      "stateMutability": "nonpayable",
      "type": "function"
    },
    {
      "stateMutability": "payable",
      "type": "receive"
    }
  ],
  "bytecode": "0x60806040523480156200001157600080fd5b5060405162002ca538038062002ca583398101604081905262000034916200006f565b60048054336001600160a01b031991821617909155600580549091166001600160a01b039490941693909317909255600655600955620000b4565b6000806000606084860312156200008557600080fd5b83516001600160a01b03811681146200009d57600080fd5b602085015160409095015190969495509392505050565b612be180620000c46000396000f3fe6080604052600436106101435760003560e01c8063aa0b5988116100b0578063cdd78cfc1161006c578063cdd78cfc14610401578063cea7b63b14610417578063d770568914610478578063dfe6b5d614610498578063e90758c4146104c0578063f2fde38b146104e057005b8063aa0b598814610348578063abae70c514610368578063b3f5756014610388578063bf2d9e0b146103a8578063c61eaa08146103be578063cb949e51146103d457005b8063641cc7d9116100ff578063641cc7d9146102855780636605ff66146102b25780637f51bb1f146102c85780638da5cb5b146102e8578063977b755f146103085780639a739d071461032857005b80630c2afd721461014c578063262175551461018e578063336989ae146101ae57806353b8ada6146101e55780635caff52e1461022057806361d027b31461024d57005b3661014a57005b005b34801561015857600080fd5b5061016c610167366004612162565b610500565b6040516101859d9c9b9a999897969594939291906121c1565b60405180910390f35b34801561019a57600080fd5b5061014a6101a9366004612348565b61079b565b3480156101ba57600080fd5b506101ce6101c9366004612406565b610a78565b6040516101859b9a99989796959493929190612428565b3480156101f157600080fd5b50610212610200366004612406565b60026020526000908152604090205481565b604051908152602001610185565b34801561022c57600080fd5b5061021261023b366004612406565b60036020526000908152604090205481565b34801561025957600080fd5b5060055461026d906001600160a01b031681565b6040516001600160a01b039091168152602001610185565b34801561029157600080fd5b506102a56102a0366004612162565b610d06565b60405161018591906124c4565b3480156102be57600080fd5b5061021260075481565b3480156102d457600080fd5b5061014a6102e3366004612406565b61109a565b3480156102f457600080fd5b5060045461026d906001600160a01b031681565b34801561031457600080fd5b5061014a6103233660046125e1565b61113c565b34801561033457600080fd5b5061014a610343366004612694565b61163e565b34801561035457600080fd5b5061014a610363366004612162565b6118ca565b34801561037457600080fd5b5061014a610383366004612162565b61194b565b34801561039457600080fd5b5061014a6103a3366004612701565b611a5b565b3480156103b457600080fd5b5061021260085481565b3480156103ca57600080fd5b5061021260095481565b3480156103e057600080fd5b506103f46103ef366004612406565b611bd8565b6040516101859190612734565b34801561040d57600080fd5b5061021260065481565b34801561042357600080fd5b5061045d610432366004612406565b6001600160a01b03166000908152600160205260409020600681015460078201546008909201549092565b60408051938452602084019290925290820152606001610185565b34801561048457600080fd5b5061014a61049336600461282f565b611f71565b3480156104a457600080fd5b5060075460085460408051928352602083019190915201610185565b3480156104cc57600080fd5b5061014a6104db366004612162565b61202e565b3480156104ec57600080fd5b5061014a6104fb366004612406565b6120c0565b6000602081905290815260409020805460018201546002830154600384015460048501546005860154600687015460078801805497986001600160a01b039788169896881697959694959394939092169261055a90612876565b80601f016020809104026020016040519081016040528092919081815260200182805461058690612876565b80156105d35780601f106105a8576101008083540402835291602001916105d3565b820191906000526020600020905b8154815290600101906020018083116105b657829003601f168201915b5050505060088301546009840154600a850180549495929460ff9092169350906105fc90612876565b80601f016020809104026020016040519081016040528092919081815260200182805461062890612876565b80156106755780601f1061064a57610100808354040283529160200191610675565b820191906000526020600020905b81548152906001019060200180831161065857829003601f168201915b50505050509080600b01805461068a90612876565b80601f01602080910402602001604051908101604052809291908181526020018280546106b690612876565b80156107035780601f106106d857610100808354040283529160200191610703565b820191906000526020600020905b8154815290600101906020018083116106e657829003601f168201915b50505050509080600c01805461071890612876565b80601f016020809104026020016040519081016040528092919081815260200182805461074490612876565b80156107915780601f1061076657610100808354040283529160200191610791565b820191906000526020600020905b81548152906001019060200180831161077457829003601f168201915b505050505090508d565b336000908152600160205260409020546001600160a01b0316156108065760405162461bcd60e51b815260206004820152601b60248201527f437573746f6d657220616c72656164792072656769737465726564000000000060448201526064015b60405180910390fd5b60008551116108575760405162461bcd60e51b815260206004820152601d60248201527f437573746f6d657220636f64652063616e6e6f7420626520656d70747900000060448201526064016107fd565b600084511161089f5760405162461bcd60e51b81526020600482015260146024820152734e616d652063616e6e6f7420626520656d70747960601b60448201526064016107fd565b6001600160a01b0381166108ee5760405162461bcd60e51b8152602060048201526016602482015275496e76616c69642077616c6c6574206164647265737360501b60448201526064016107fd565b604080516101608101825233808252602080830189815283850189905260608401889052608084018790526001600160a01b0386811660a0860152600060c0860181905260e08601819052610100860181905260016101208701819052426101408801529481529284905294909120835181546001600160a01b03191695169490941784555191928392909182019061098790826128fe565b506040820151600282019061099c90826128fe565b50606082015160038201906109b190826128fe565b50608082015160048201906109c690826128fe565b5060a08201516005820180546001600160a01b0319166001600160a01b0390921691909117905560c0820151600682015560e08201516007820155610100820151600882015561012082015160098201805460ff191691151591909117905561014090910151600a9091015560405133907f3d18f91720489c1e61d3c8639717f52598bb9f37324342aa60d7420f77a5385290610a68908990899042906129be565b60405180910390a2505050505050565b6001602081905260009182526040909120805491810180546001600160a01b0390931692610aa590612876565b80601f0160208091040260200160405190810160405280929190818152602001828054610ad190612876565b8015610b1e5780601f10610af357610100808354040283529160200191610b1e565b820191906000526020600020905b815481529060010190602001808311610b0157829003601f168201915b505050505090806002018054610b3390612876565b80601f0160208091040260200160405190810160405280929190818152602001828054610b5f90612876565b8015610bac5780601f10610b8157610100808354040283529160200191610bac565b820191906000526020600020905b815481529060010190602001808311610b8f57829003601f168201915b505050505090806003018054610bc190612876565b80601f0160208091040260200160405190810160405280929190818152602001828054610bed90612876565b8015610c3a5780601f10610c0f57610100808354040283529160200191610c3a565b820191906000526020600020905b815481529060010190602001808311610c1d57829003601f168201915b505050505090806004018054610c4f90612876565b80601f0160208091040260200160405190810160405280929190818152602001828054610c7b90612876565b8015610cc85780601f10610c9d57610100808354040283529160200191610cc8565b820191906000526020600020905b815481529060010190602001808311610cab57829003601f168201915b50505060058401546006850154600786015460088701546009880154600a9098015496976001600160a01b03909416969295509093509160ff16908b565b610d91604051806101a001604052806000801916815260200160006001600160a01b0316815260200160006001600160a01b0316815260200160008152602001600081526020016000815260200160006001600160a01b0316815260200160608152602001600081526020016000151581526020016060815260200160608152602001606081525090565b600082815260208190526040902054610dbc5760405162461bcd60e51b81526004016107fd906129f4565b6000828152602081815260409182902082516101a0810184528154815260018201546001600160a01b039081169382019390935260028201548316938101939093526003810154606084015260048101546080840152600581015460a0840152600681015490911660c083015260078101805460e084019190610e3e90612876565b80601f0160208091040260200160405190810160405280929190818152602001828054610e6a90612876565b8015610eb75780601f10610e8c57610100808354040283529160200191610eb7565b820191906000526020600020905b815481529060010190602001808311610e9a57829003601f168201915b505050918352505060088201546020820152600982015460ff1615156040820152600a82018054606090920191610eed90612876565b80601f0160208091040260200160405190810160405280929190818152602001828054610f1990612876565b8015610f665780601f10610f3b57610100808354040283529160200191610f66565b820191906000526020600020905b815481529060010190602001808311610f4957829003601f168201915b50505050508152602001600b82018054610f7f90612876565b80601f0160208091040260200160405190810160405280929190818152602001828054610fab90612876565b8015610ff85780601f10610fcd57610100808354040283529160200191610ff8565b820191906000526020600020905b815481529060010190602001808311610fdb57829003601f168201915b50505050508152602001600c8201805461101190612876565b80601f016020809104026020016040519081016040528092919081815260200182805461103d90612876565b801561108a5780601f1061105f5761010080835404028352916020019161108a565b820191906000526020600020905b81548152906001019060200180831161106d57829003601f168201915b5050505050815250509050919050565b6004546001600160a01b031633146110c45760405162461bcd60e51b81526004016107fd90612a1c565b6001600160a01b03811661111a5760405162461bcd60e51b815260206004820152601860248201527f496e76616c69642074726561737572792061646472657373000000000000000060448201526064016107fd565b600580546001600160a01b0319166001600160a01b0392909216919091179055565b336111595760405162461bcd60e51b81526004016107fd90612a5d565b6001600160a01b0388166111af5760405162461bcd60e51b815260206004820152601860248201527f496e76616c696420637573746f6d65722061646472657373000000000000000060448201526064016107fd565b6001600160a01b0387166111fc5760405162461bcd60e51b8152602060048201526014602482015273496e76616c69642063726f70206164647265737360601b60448201526064016107fd565b6001600160a01b03881660009081526001602052604090206009015460ff166112735760405162461bcd60e51b815260206004820152602360248201527f437573746f6d6572206e6f742072656769737465726564206f7220696e61637460448201526269766560e81b60648201526084016107fd565b600086116112c35760405162461bcd60e51b815260206004820152601f60248201527f5175616e74697479206d7573742062652067726561746572207468616e20300060448201526064016107fd565b600085116113215760405162461bcd60e51b815260206004820152602560248201527f50726963652070657220756e6974206d75737420626520677265617465722074604482015264068616e20360dc1b60648201526084016107fd565b6000841161137d5760405162461bcd60e51b815260206004820152602360248201527f546f74616c20616d6f756e74206d75737420626520677265617465722074686160448201526206e20360ec1b60648201526084016107fd565b6040516bffffffffffffffffffffffff1960608a811b8216602084015289811b82166034840152604883018990526068830188905242608884015233901b1660a882015260009060bc0160408051601f198184030181529181528151602092830120600081815292839052912054909150156114315760405162461bcd60e51b815260206004820152601360248201527253616c6520616c72656164792065786973747360681b60448201526064016107fd565b604080516101a0810182528281526001600160a01b03808c1660208084019182528c8316848601908152606085018d8152608086018d815260a087018d81528c871660c0890190815260e089018d8152426101008b015260006101208b018190528b518089018d528181526101408c01526101608b018e90528b51808d018d5260078082526650454e44494e4760c81b828b01526101808d01919091528d8252978190529a909a20895181559651600188018054918a166001600160a01b03199283161790559451600288018054918a1691871691909117905592516003870155905160048601555160058501555160068401805491909516911617909255925191928392909182019061154590826128fe565b50610100820151600882015561012082015160098201805460ff1916911515919091179055610140820151600a82019061157f90826128fe565b50610160820151600b82019061159590826128fe565b50610180820151600c8201906115ab90826128fe565b505060078054915060006115be83612aaa565b919050555085600860008282546115d59190612ac3565b92505081905550886001600160a01b03168a6001600160a01b0316837f5dd52a720f2d606fbff22f93ab1b5990fec1f7795169c1b14534aa77e8ab1e138b8b8b8b8b4260405161162a96959493929190612adc565b60405180910390a450505050505050505050565b3361165b5760405162461bcd60e51b81526004016107fd90612a5d565b6000838152602081905260409020546116865760405162461bcd60e51b81526004016107fd906129f4565b60008381526020819052604090206009015460ff16156116e85760405162461bcd60e51b815260206004820152601960248201527f5061796d656e7420616c72656164792070726f6365737365640000000000000060448201526064016107fd565b600083815260208190526040812060065460058201549192916127109161170e91612b22565b6117189190612b39565b9050600081836005015461172c9190612b5b565b6001848101546001600160a01b031660009081526020919091526040812060060180549293509061175c83612aaa565b909155505060058301546001808501546001600160a01b03166000908152602091909152604081206007018054909190611797908490612ac3565b909155505060095460058401546064916117b091612b22565b6117ba9190612b39565b6001848101546001600160a01b031660009081526020919091526040812060080180549091906117eb908490612ac3565b909155505060018301546001600160a01b0316600090815260026020526040812080549161181883612aaa565b9091555050600583015460018401546001600160a01b03166000908152600360205260408120805490919061184e908490612ac3565b909155505060098301805460ff19166001179055600a830161187085826128fe565b5060018301546040516001600160a01b039091169087907f3b1c13d60f5e646c7a9066c285c3db2632bfa4642f084c7e8b5ba939a71e09ce906118ba9085908a908a904290612b6e565b60405180910390a3505050505050565b6004546001600160a01b031633146118f45760405162461bcd60e51b81526004016107fd90612a1c565b6103e88111156119465760405162461bcd60e51b815260206004820181905260248201527f4665652070657263656e746167652063616e6e6f74206578636565642031302560448201526064016107fd565b600655565b6004546001600160a01b031633146119755760405162461bcd60e51b81526004016107fd90612a1c565b478111156119c55760405162461bcd60e51b815260206004820152601d60248201527f496e73756666696369656e7420636f6e74726163742062616c616e636500000060448201526064016107fd565b6005546001600160a01b0316611a1d5760405162461bcd60e51b815260206004820152601860248201527f54726561737572792061646472657373206e6f7420736574000000000000000060448201526064016107fd565b6005546040516001600160a01b039091169082156108fc029083906000818181858888f19350505050158015611a57573d6000803e3d6000fd5b5050565b33611a785760405162461bcd60e51b81526004016107fd90612a5d565b6001600160a01b03831660009081526001602052604090206009015460ff16611ad95760405162461bcd60e51b8152602060048201526013602482015272437573746f6d6572206e6f742061637469766560681b60448201526064016107fd565b6001600160a01b038316600090815260016020526040902060080154821115611b445760405162461bcd60e51b815260206004820152601b60248201527f496e73756666696369656e74206c6f79616c747920706f696e7473000000000060448201526064016107fd565b60008111611ba35760405162461bcd60e51b815260206004820152602660248201527f446973636f756e7420616d6f756e74206d75737420626520677265617465722060448201526507468616e20360d41b60648201526084016107fd565b6001600160a01b03831660009081526001602052604081206008018054849290611bce908490612b5b565b9091555050505050565b611c4960405180610160016040528060006001600160a01b031681526020016060815260200160608152602001606081526020016060815260200160006001600160a01b03168152602001600081526020016000815260200160008152602001600015158152602001600081525090565b6001600160a01b0382811660009081526001602052604090205416611ca55760405162461bcd60e51b815260206004820152601260248201527110dd5cdd1bdb595c881b9bdd08199bdd5b9960721b60448201526064016107fd565b6001600160a01b038083166000908152600160208181526040928390208351610160810190945280549094168352908301805492939291840191611ce890612876565b80601f0160208091040260200160405190810160405280929190818152602001828054611d1490612876565b8015611d615780601f10611d3657610100808354040283529160200191611d61565b820191906000526020600020905b815481529060010190602001808311611d4457829003601f168201915b50505050508152602001600282018054611d7a90612876565b80601f0160208091040260200160405190810160405280929190818152602001828054611da690612876565b8015611df35780601f10611dc857610100808354040283529160200191611df3565b820191906000526020600020905b815481529060010190602001808311611dd657829003601f168201915b50505050508152602001600382018054611e0c90612876565b80601f0160208091040260200160405190810160405280929190818152602001828054611e3890612876565b8015611e855780601f10611e5a57610100808354040283529160200191611e85565b820191906000526020600020905b815481529060010190602001808311611e6857829003601f168201915b50505050508152602001600482018054611e9e90612876565b80601f0160208091040260200160405190810160405280929190818152602001828054611eca90612876565b8015611f175780601f10611eec57610100808354040283529160200191611f17565b820191906000526020600020905b815481529060010190602001808311611efa57829003601f168201915b505050918352505060058201546001600160a01b03166020820152600682015460408201526007820154606082015260088201546080820152600982015460ff16151560a0820152600a9091015460c09091015292915050565b33611f8e5760405162461bcd60e51b81526004016107fd90612a5d565b600082815260208190526040902054611fb95760405162461bcd60e51b81526004016107fd906129f4565b60008281526020819052604090206009015460ff1661200e5760405162461bcd60e51b815260206004820152601160248201527014d85b19481b9bdd081c185a59081e595d607a1b60448201526064016107fd565b6000828152602081905260409020600c0161202982826128fe565b505050565b6004546001600160a01b031633146120585760405162461bcd60e51b81526004016107fd90612a1c565b600081116120bb5760405162461bcd60e51b815260206004820152602a60248201527f4c6f79616c747920706f696e74732072617465206d75737420626520677265616044820152690746572207468616e20360b41b60648201526084016107fd565b600955565b6004546001600160a01b031633146120ea5760405162461bcd60e51b81526004016107fd90612a1c565b6001600160a01b0381166121405760405162461bcd60e51b815260206004820152601960248201527f496e76616c6964206e6577206f776e657220616464726573730000000000000060448201526064016107fd565b600480546001600160a01b0319166001600160a01b0392909216919091179055565b60006020828403121561217457600080fd5b5035919050565b6000815180845260005b818110156121a157602081850181015186830182015201612185565b506000602082860101526020601f19601f83011685010191505092915050565b8d81526001600160a01b038d1660208201526001600160a01b038c1660408201528a60608201528960808201528860a082015261220960c08201896001600160a01b03169052565b6101a060e082015260006122216101a083018961217b565b8761010084015261223761012084018815159052565b82810361014084015261224a818761217b565b905082810361016084015261225f818661217b565b9050828103610180840152612274818561217b565b9150509e9d5050505050505050505050505050565b634e487b7160e01b600052604160045260246000fd5b600082601f8301126122b057600080fd5b813567ffffffffffffffff808211156122cb576122cb612289565b604051601f8301601f19908116603f011681019082821181831017156122f3576122f3612289565b8160405283815286602085880101111561230c57600080fd5b836020870160208301376000602085830101528094505050505092915050565b80356001600160a01b038116811461234357600080fd5b919050565b600080600080600060a0868803121561236057600080fd5b853567ffffffffffffffff8082111561237857600080fd5b61238489838a0161229f565b9650602088013591508082111561239a57600080fd5b6123a689838a0161229f565b955060408801359150808211156123bc57600080fd5b6123c889838a0161229f565b945060608801359150808211156123de57600080fd5b506123eb8882890161229f565b9250506123fa6080870161232c565b90509295509295909350565b60006020828403121561241857600080fd5b6124218261232c565b9392505050565b6001600160a01b038c811682526101606020830181905260009161244e8483018f61217b565b91508382036040850152612462828e61217b565b91508382036060850152612476828d61217b565b9150838203608085015261248a828c61217b565b991660a0840152505060c081019590955260e085019390935261010084019190915215156101208301526101409091015295945050505050565b6020815281516020820152600060208301516124eb60408401826001600160a01b03169052565b5060408301516001600160a01b03811660608401525060608301516080830152608083015160a083015260a083015160c083015260c083015161253960e08401826001600160a01b03169052565b5060e08301516101a061010081818601526125586101c086018461217b565b908601516101208681019190915286015190925061014061257c8187018315159052565b80870151915050601f1961016081878603018188015261259c858461217b565b9450808801519250506101808187860301818801526125bb858461217b565b9088015187820390920184880152935090506125d7838261217b565b9695505050505050565b600080600080600080600080610100898b0312156125fe57600080fd5b6126078961232c565b975061261560208a0161232c565b965060408901359550606089013594506080890135935061263860a08a0161232c565b925060c089013567ffffffffffffffff8082111561265557600080fd5b6126618c838d0161229f565b935060e08b013591508082111561267757600080fd5b506126848b828c0161229f565b9150509295985092959890939650565b6000806000606084860312156126a957600080fd5b83359250602084013567ffffffffffffffff808211156126c857600080fd5b6126d48783880161229f565b935060408601359150808211156126ea57600080fd5b506126f78682870161229f565b9150509250925092565b60008060006060848603121561271657600080fd5b61271f8461232c565b95602085013595506040909401359392505050565b6020815261274e6020820183516001600160a01b03169052565b6000602083015161016080604085015261276c61018085018361217b565b91506040850151601f198086850301606087015261278a848361217b565b935060608701519150808685030160808701526127a7848361217b565b935060808701519150808685030160a0870152506127c5838261217b565b92505060a08501516127e260c08601826001600160a01b03169052565b5060c085015160e085810191909152850151610100808601919091528501516101208086019190915285015161014061281e8187018315159052565b959095015193019290925250919050565b6000806040838503121561284257600080fd5b82359150602083013567ffffffffffffffff81111561286057600080fd5b61286c8582860161229f565b9150509250929050565b600181811c9082168061288a57607f821691505b6020821081036128aa57634e487b7160e01b600052602260045260246000fd5b50919050565b601f82111561202957600081815260208120601f850160051c810160208610156128d75750805b601f850160051c820191505b818110156128f6578281556001016128e3565b505050505050565b815167ffffffffffffffff81111561291857612918612289565b61292c816129268454612876565b846128b0565b602080601f83116001811461296157600084156129495750858301515b600019600386901b1c1916600185901b1785556128f6565b600085815260208120601f198616915b8281101561299057888601518255948401946001909101908401612971565b50858210156129ae5787850151600019600388901b60f8161c191681555b5050505050600190811b01905550565b6060815260006129d1606083018661217b565b82810360208401526129e3818661217b565b915050826040830152949350505050565b6020808252600e908201526d14d85b19481b9bdd08199bdd5b9960921b604082015260600190565b60208082526021908201527f4f6e6c79206f776e65722063616e2063616c6c20746869732066756e6374696f6040820152603760f91b606082015260800190565b6020808252601b908201527f496e76616c696420676f7665726e6d656e7420656d706c6f7965650000000000604082015260600190565b634e487b7160e01b600052601160045260246000fd5b600060018201612abc57612abc612a94565b5060010190565b80820180821115612ad657612ad6612a94565b92915050565b86815285602082015284604082015260018060a01b038416606082015260c060808201526000612b0f60c083018561217b565b90508260a0830152979650505050505050565b8082028115828204841417612ad657612ad6612a94565b600082612b5657634e487b7160e01b600052601260045260246000fd5b500490565b81810381811115612ad657612ad6612a94565b848152608060208201526000612b87608083018661217b565b8281036040840152612b99818661217b565b9150508260608301529594505050505056fea2646970667358221220571bbeb7dd46231a2e8ea3b9c6433ba7194eb9f834f9242352f8a4c8713cb39864736f6c63430008140033",
  "linkReferences": {},
  "deployedLinkReferences": {}
}